:040000008DEF3EF052
:107D1A00000190EF3EF0B2EC3EF0660EFAEC3EF057
:107D2A00750EFAEC3EF0630EFAEC3EF06B0EFAECCE
:107D3A003EF0FFD78984270E016EF50EE82EFED796
:107D4A00012EFCD700F08994270E016EF50EE82E5D
:107D5A00FED7012EFCD700F012003B0E056E700E06
:107D6A00E82EFED7052EFCD7000E926E000E946EFA
:107D7A003B0E056E700EE82EFED7052EFCD7300E90
:107D8A0073EC3FF0380E73EC3FF03B0E056E700E4D
:107D9A00E82EFED7052EFCD7080E73EC3FF03B0EFB
:107DAA00056E700EE82EFED7052EFCD7010E73EC79
:107DBA003FF03B0E056E700EE82EFED7052EFCD75F
:107DCA00060E73EC3FF03B0E056E700EE82EFED7E2
:107DDA00052EFCD70F0E73EC3FF03B0E056E700EAE
:107DEA00E82EFED7052EFCD71200046E89808992F0
:107DFA00026A04AE01D0022A010E021602320232CF
:107E0A008B5002187F0B02188B6E04C002F0060E0C
:107E1A00036ED8900232032EFCD7010E0216023AE4
:107E2A00024602468B500218BF0B02188B6E04C022
:107E3A0002F0050E036ED8900232032EFCD7010E13
:107E4A000216023A02468B500218DF0B02188B6E9A
:107E5A0004C002F0023A0F0E0216010E0216023A8E
:107E6A008B500218EF0B02188B6E04C002F0D890E8
:107E7A000232D8900232D8900232010E021602461D
:107E8A00024602468B500218F70B02188B6E04C08A
:107E9A0002F0D8900232D8900232010E021602463F
:107EAA0002468B500218FB0B02188B6E04C002F0BC
:107EBA00D8900232010E021602468B500218FD0BB0
:107ECA0002188B6E04C002F0010E02168B500218C3
:107EDA00FE0B02188B6E9FEC3EF01200046E899026
:107EEA008992020E036E860E026E990EE82EFED756
:107EFA00022EFCD7032EFAD700F0026A04AE01D094
:107F0A00022A010E0216023202328B5002187F0B2D
:107F1A0002188B6E04C002F0060E036ED89002326D
:107F2A00032EFCD7010E0216023A024602468B5075
:107F3A000218BF0B02188B6E04C002F0050E036E06
:107F4A00D8900232032EFCD7010E0216023A0246DC
:107F5A008B500218DF0B02188B6E04C002F0023A33
:107F6A000F0E0216010E0216023A8B500218EF0B80
:107F7A0002188B6E04C002F0D8900232D8900232F6
:107F8A00D8900232010E02160246024602468B5071
:107F9A000218F70B02188B6E04C002F0D890023256
:107FAA00D8900232010E0216024602468B5002187F
:107FBA00FB0B02188B6E04C002F0D8900232010E3D
:107FCA00021602468B500218FD0B02188B6E04C073
:107FDA0002F0010E02168B500218FE0B02188B6E6D
:107FEA009FEC3EF0270E026EF50EE82EFED7022E0B
:067FFA00FCD700F01200AC
:020000040020DA
:08000000FFFFFFFFFFFFFFFF00
:020000040030CA
:0E000000FF281F3FFFBF85FF0FC00FE00F401E
:00000001FF
