:040000006AEF3FF074
:107ED400026A016A00016FEF3FF0948694880F01F3
:107EE4003A973A99000E926E000E386F380EC66EAD
:107EF400000EC76E000EC56E010EC86EF28EF288BB
:107F0400F086F292F090F18CF18AF28C9D869E9626
:107F1400898E020E046E450E036EAA0EE82EFED75D
:107F2400032EFCD7042EFAD7899E020E046E450E4A
:107F3400036EAA0EE82EFED7032EFCD7042EFAD722
:107F4400898E020E046E450E036EAA0EE82EFED72D
:107F5400032EFCD7042EFAD7899E020E046E450E1A
:107F6400036EAA0EE82EFED7032EFCD7042EFAD7F2
:107F7400898E020E046E450E036EAA0EE82EFED7FD
:107F8400032EFCD7042EFAD7899E020E046E450EEA
:107F9400036EAA0EE82EFED7032EFCD7042EFAD7C2
:107FA400898E020E046E450E036EAA0EE82EFED7CD
:107FB400032EFCD7042EFAD7899E020E046E450EBA
:107FC400036EAA0EE82EFED7032EFCD7042EFAD792
:107FD400C580C5B0FED79E96800EC96E9EA6FED7FC
:107FE400C58CC550C5B4FED79E960F0EC96E9EA60D
:0C7FF400FED79E96C584C5A48BD7FDD790
:020000040020DA
:08000000FFFFFFFFFFFFFFFF00
:020000040030CA
:0E000000FF28193CFFBF85FF0FC00FE00F4027
:00000001FF
