:040000007AEF00F0A3
:100008001B82FACF06F0FBCF07F0E9CF08F0EACF62
:1000180009F0E1CF0AF0E2CF0BF0D9CF0CF0DACF3C
:100028000DF0F3CF0EF0F4CF0FF0F6CF10F0F7CFBE
:1000380011F0F8CF12F0F5CF13F01BC014F01CC06C
:1000480015F01DC016F01EC017F0F2A21BD0000E4E
:10005800196E000E186E0CD0000E036E800E026E24
:10006800000E056E020E046EC2EC00F0184A192A42
:1000780019BEF2D7E90E185C030E1958D8A0ECD7B0
:10008800F2920BD0F0A009D0000E036E810E026E22
:100098007CEC00F002501A6EF090C584C5B4FED70F
:1000A80017C01EF016C01DF015C01CF014C01BF0C0
:1000B80013C0F5FF12C0F8FF11C0F7FF10C0F6FF1C
:1000C8000FC0F4FF0EC0F3FF0DC0DAFF0CC0D9FF5C
:1000D8000BC0E2FF0AC0E1FF09C0EAFF08C0E9FF60
:1000E80007C0FBFF06C0FAFF1B921100E3EF00F008
:1000F800C580DAEC00F09E96C9CF04F0056A02C00C
:10010800C9FF9EA6FED7C5AC08D0C584DAEC00F0BE
:10011800000E036E000E026E12009E96C586DAEC83
:1001280000F0C9CF04F0056A9E96C584C5B4FED711
:1001380004C002F005C003F01200D3508F0B600911
:10014800D36E280EC66E0F013A973A999486948812
:10015800C596000EC56E130EC86E800EC76EF28E61
:10016800F288F086F292F090F18CF18A000E926E8D
:10017800000E386F9368000E396FFFD7C580DAEC30
:1001880000F09E9602C0C9FF9EA6FED7C5AC04D05B
:10019800C584C5A41200FDD79E9604C0C9FF9EA6BB
:1001A800FED79E96C584DAEC00F01200C7B4FED7DD
:1001B800C5CF01F01F0E0116D8B41200F7D71A6A7E
:0A01C8001B901B920001A1EF00F054
:020000040020DA
:08000000FFFFFFFFFFFFFFFF00
:020000040030CA
:0E000000FF28193CFFBF85FF0FC00FE00F4027
:00000001FF
