:0400000068EF00F0B5
:100008001782FACF01F0FBCF02F0E9CF03F0EACF75
:1000180004F0E1CF05F0E2CF06F0D9CF07F0DACF50
:1000280008F0F3CF09F0F4CF0AF0F6CF0BF0F7CFD2
:100038000CF0F8CF0DF0F5CF0EF017C00FF018C088
:1000480010F019C011F01AC012F09EA617D0C69869
:10005800C6BE02D0C6AC06D0C9CF15F0166AC69C7B
:10006800C69EC698C7B409D0C9CF15F0166AC68807
:10007800C7A0FED7C9CF15F0166A9E9612C01AF00F
:1000880011C019F010C018F00FC017F00EC0F5FF1E
:100098000DC0F8FF0CC0F7FF0BC0F6FF0AC0F4FF55
:1000A80009C0F3FF08C0DAFF07C0D9FF06C0E2FFA6
:1000B80005C0E1FF04C0EAFF03C0E9FF02C0FBFF7F
:1000C80001C0FAFF1792110093EF00F0F19E6168EA
:1000D8009368000E0F01396F000E926E000E386F94
:1000E800000E146E800E136E81EC00F00F0E1518C2
:1000F8001610D8A4FBD78968F9D7800EC76E13C02D
:10010800C8FF360EC66E010EC56E948694880F0120
:100118003A973A999D86F28E9E96F28C1200166A4C
:0C012800156A1790179200016AEF00F0B2
:020000040020DA
:08000000FFFFFFFFFFFFFFFF00
:020000040030CA
:0E000000FF28193CFFBF85FF0FC00FE00F4027
:00000001FF
