:040000005DEF00F0C0
:100008004C82FACF01F0FBCF02F0E9CF03F0EACF40
:1000180004F0E1CF05F0E2CF06F0D9CF07F0DACF50
:1000280008F0F3CF09F0F4CF0AF0F6CF0BF0F7CFD2
:100038000CF0F8CF0DF0F5CF0EF04CC00FF04DC01E
:1000480010F04EC011F04FC012F0F2BCA3A805D0BA
:10005800A4A803D0D4EC17F006D0F2BCA3AA03D00E
:10006800A4BA01EC18F012C04FF011C04EF010C045
:100078004DF00FC04CF00EC0F5FF0DC0F8FF0CC0DE
:10008800F7FF0BC0F6FF0AC0F4FF09C0F3FF08C072
:10009800DAFF07C0D9FF06C0E2FF05C0E1FF04C0D0
:1000A800EAFF03C0E9FF02C0FBFF01C0FAFF4C9260
:0600B800110017EF18F023
:1006000000010000000A00000064000000E8030090
:100610000010270000A086010040420F008096983D
:100620000000E1F50500CA9A3B00803F0020410030
:10063000C842007A44401C4650C347247449971866
:100640004BBCBE4C6B6E4E03155079AD60F34971D7
:1006500000803FCDCC3DD7233C12833AB7D138C67A
:100660002737388635C0D633CC2B32708930E7DB5C
:100670002EE53C1E42A20D0A77726F6E6720636FF3
:100680006D6D616E640A000A44617461203D20252D
:10069000302E32660A000A434D44203D2025640A6C
:1006A0000000900E00019C6F000E00019D6F15EF81
:1006B00009F0250E0001B119D8B406D00001B151DE
:1006C00089EC18F015EF09F0000E0001AB6F000E79
:1006D000AA6F000E0001A96F000EA86F05D00001DF
:1006E000A88500018E4B8F2B8EC0F6FF8FC0F7FFC1
:1006F0000800F550300AD8B4F2D78EC0F6FF8FC08C
:10070000F7FF0800F55061EC18F0D8A03FD0000EBC
:100710000001AB6F000EAA6FAAC021F0ABC022F09F
:10072000000E246E0A0E236E2AEC18F021C0AAF0E7
:1007300022C0ABF0D00E0001936FFF0E0001946F4A
:100740008EC0F6FF8FC0F7FF0800F5500001956FCF
:10075000966B00019351000195270001945100010F
:100760009623000195510001AA270001965100012E
:10077000AB2300018E4B8F2B8EC0F6FF8FC0F7FF8F
:100780000800F55061EC18F0D8B0C6D78EC0F6FF5F
:100790008FC0F7FF0800F5502E0AD8A434D000010E
:1007A000A98D00018E4B8F2B000E0001B06F000E43
:1007B000AF6F1ED0AFC021F0B0C022F0000E246E8B
:1007C0000A0E236E2AEC18F08EC0F6FF8FC0F7FFDA
:1007D0000800F5502126000E2222D00E212400010F
:1007E000AF6FFF0E22200001B06F00018E4B8F2BE8
:1007F0008EC0F6FF8FC0F7FF0800F55061EC18F0CF
:10080000D8A00CD0D7D7000E0001B06F000EAF6F8C
:100810000001A98903D00001A98519D08EC0F6FF77
:100820008FC0F7FF00018E4B8F2B0800F5CFB1F082
:100830000001B151000AD8B41200640AD8B407D03C
:10084000020AD8B4E8D70F0AD8A415EF09F0070EAA
:100850000001A915D8B46DD30001A9A905D0000ED7
:100860000001B06F060EAF6F9CC0D9FF9DC0DAFFCC
:10087000DECFACF0DECFADF0DDCFAEF0030E000189
:100880009C27000E9D230001AEAF11D0ACC013F029
:10089000ADC014F0AEC015F03DEC18F013C0ACF0D4
:1008A00014C0ADF015C0AEF0030E0001A813000E89
:1008B0000001A76F000EA66F0001AC510001AD1141
:1008C0000001AE11D8B491D0820E0001936FFF0EDB
:1008D0000001946FACC095F0ADC096F0AEC097F03B
:1008E000AFC098F0100E06D00001D890983397331F
:1008F00096339533E82EF8D70001955100019325E2
:100900000001A66F000E000194210001A76F0001F5
:10091000A607D8A0A707A6C021F0A7C022F0000E06
:10092000246E030E236E2AEC18F021C0A6F022C01C
:10093000A7F0A6C019F0A7C01AF0000E1C6E0A0E90
:100940001B6E89EC15F019C0A6F01AC0A7F00001C3
:10095000A7AF04D00001A607D8A0A7070001A651A1
:10096000000825EC09F078C09EF079C09FF07AC0AD
:10097000A0F09EC069F09FC06AF0A0C06BF0ACC050
:100980006CF0ADC06DF0AEC06EF0DFEC0FF069C082
:100990009EF06AC09FF06BC0A0F09EC013F09FC095
:1009A00014F0A0C015F0000E166E800E176E3F0EEC
:1009B000186E41EC15F0D8B005D00001A607D8A0FC
:1009C000A70713D09EC013F09FC014F0A0C015F06D
:1009D000000E166E200E176E410E186E41EC15F0CB
:1009E000D8A003D00001A64BA72B0001B0BF08D0B0
:1009F0000001B0511DE10D0E0001AF5DD8B018D05F
:100A0000ACC027F0ADC028F0AEC029F00001AF5156
:100A1000C4EC0CF078C02AF079C02BF07AC02CF02E
:100A200009EC0FF027C0ACF028C0ADF029C0AEF043
:100A30000001A7BF08D00001A7512AE10A0E00015A
:100A4000A65DD8B025D00001AC510001AD11000168
:100A5000AE11D8B45FD0ACC07FF0ADC080F0AEC0F6
:100A600081F08EEC10F000017F5100018011000137
:100A7000811100018211D8A44DD00001A7BF4AD036
:100A80000001A75105E1020E0001A65DD8A042D0E9
:100A90009EC013F09FC014F0A0C015F0700E166E2B
:100AA000890E176E400E186E41EC15F0D8B003D0C9
:100AB0000001F70E02D00001F80EA627FF0EA723B3
:100AC0000001A65125EC09F078C09EF079C09FF096
:100AD0007AC0A0F0ACC013F0ADC014F0AEC015F0F9
:100AE0009EC016F09FC017F0A0C018F030EC11F0B7
:100AF00013C0A2F014C0A3F015C0A4F016C0A5F056
:100B0000000E0001AC6F000E0001AD6F000E000181
:100B1000AE6F33D0ACC07FF0ADC080F0AEC081F01E
:100B20008EEC10F07FC0A2F080C0A3F081C0A4F0D2
:100B300082C0A5F0ACC033F0ADC034F0AEC035F02B
:100B4000A2C01BF0A3C01CF0A4C01DF0A5C01EF0E5
:100B5000DCEC16F01BC036F01CC037F01DC038F0BE
:100B60002FEC17F033C0ACF034C0ADF035C0AEF0B0
:100B7000000E0001A76F000EA66F010E0001B16FFD
:100B80000A0E0001B119D8B41ED00001B151040DF4
:100B9000010EF324F66E060EF420F76E0900F550F0
:100BA0000001A25D0900F5500001A3590900F550AC
:100BB0000001A4590900F5500001A559D8A003D09F
:100BC0000001B12BDDD7B1C093F00001946B93BF4E
:100BD00094070001AF51000193270001B0510001BB
:100BE00094230001A651000193270001A7510001A1
:100BF0009423000193510001AA5F00019451000168
:100C0000AB5B0001AF510001B011D8B404D00001BA
:100C1000AA07D8A0AB07030E0001A8150001936F27
:100C2000000E0001A9150001946F0001935100010D
:100C30009411D8B404D00001AA07D8A0AB070001D2
:100C4000A8A52DD0030E0001A8150001936F000E7A
:100C50000001A9150001946F000193510001941146
:100C6000D8B40BD02D0E89EC18F007D0300E89ECDB
:100C700018F00001AA07D8A0AB070001ABBF73D0E2
:100C80000001AB51F3E10001AA05D8A06CD0EED76A
:100C9000200E89EC18F00001AA07D8A0AB070001CC
:100CA000ABBF07D00001AB51F3E10001AA05D8B0FA
:100CB000EFD7030E0001A8150001936F000E00018D
:100CC000A9150001946F0001935100019411D8B44B
:100CD0004AD02D0E89EC18F046D0A2C013F0A3C064
:100CE00014F0A4C015F0A5C016F00001B151040D18
:100CF000010EF324F66E060EF420F76E0900F5CF10
:100D000017F00900F5CF18F00900F5CF19F00A0027
:100D1000F5CF1AF0CBEC15F013C09EF014C09FF085
:100D200015C0A0F016C0A1F09EC020F09FC021F019
:100D3000A0C022F0A1C023F00A0E246E000E256E82
:100D4000000E266E000E276E79EC16F020C09EF085
:100D500021C09FF022C0A0F023C0A1F000019E514D
:100D6000300F89EC18F00001B1070001B129D8B4A7
:100D700008D0B3D7300E89EC18F00001A607D8A030
:100D8000A7070001A7BF07D00001A751F3E10001A9
:100D9000A605D8B0EFD70001B0BF0CD00001B0510C
:100DA00005E1090E0001AF5DD8A004D0080E0001D6
:100DB000B16F02D0AFC0B1F00001B1510001AF5F1F
:100DC000000E0001B1BFFF0E0001B05B0001B15188
:100DD0000001D8B403D02E0E89EC18F00001B151F7
:100DE00025EC09F078C099F079C09AF07AC09BF0B0
:100DF000ACC06CF0ADC06DF0AEC06EF099C069F0E3
:100E00009AC06AF09BC06BF0DFEC0FF069C07FF016
:100E10006AC080F06BC081F08EEC10F07FC0A2F051
:100E200080C0A3F081C0A4F082C0A5F06DD0A2C0A4
:100E300013F0A3C014F0A4C015F0A5C016F0000173
:100E4000B151040D010EF324F66E060EF420F76E78
:100E50000900F5CF17F00900F5CF18F00900F5CF1C
:100E600019F00A00F5CF1AF0CBEC15F013C09EF084
:100E700014C09FF015C0A0F016C0A1F09EC020F0D5
:100E80009FC021F0A0C022F0A1C023F00A0E246E62
:100E9000000E256E000E266E000E276E79EC16F001
:100EA00020C09EF021C09FF022C0A0F023C0A1F07E
:100EB00000019E51300F89EC18F0A2C020F0A3C0B1
:100EC00021F0A4C022F0A5C023F00001B151040D0F
:100ED000010EF324F66E060EF420F76E0900F5CF2E
:100EE00024F00900F5CF25F00900F5CF26F00A001F
:100EF000F5CF27F079EC16F020C0A2F021C0A3F0C6
:100F000022C0A4F023C0A5F00001B1070001B1295F
:100F1000D8B408D08CD7300E89EC18F00001AF0798
:100F2000D8A0B0070001AF510001B011D8B47DD1F5
:100F3000F2D79CC0D9FF9DC0DAFFDECFA2F0DDCF93
:100F4000A3F00001000EA3BFFF0EA46FA56F020E59
:100F500000019C27000E9D230001A5AF0CD0030EBD
:100F60000001A8130001A51FA41FA31FA26D000E5E
:100F7000A323A423A5230001AF510001B011D8A4DD
:100F80000DD00001A2510001A3110001A411000124
:100F9000A511D8A403D00001AF4BB02B010E000166
:100FA000B16F0A0E0001B119D8B41ED00001B151C1
:100FB000040D010EF324F66E060EF420F76E090000
:100FC000F5500001A25D0900F5500001A359090088
:100FD000F5500001A4590900F5500001A559D8A009
:100FE00003D00001B12BDDD7800E0001B1BF7F0E11
:100FF0000001936F0001AF510001B15D0001B051DC
:10100000800A00019359D8B003D0AFC0B1F018D016
:101010000001B051800A0001936F0001B15100013D
:10102000AF5D800E0001B1BF7F0E00019359D8B0B3
:1010300007D00001B1510001AF6FB06BAFBFB00777
:101040000001AA510001AB11D8B414D0030E000165
:10105000A8150001936F000E0001A9150001946FFF
:101060000001935100019411D8B404D00001AA07E3
:10107000D8A0AB070001A9AD1ED00001AA51000104
:10108000AF5D0001B051800A0001936F0001AB51C8
:10109000800A00019359D8B009D00001AF51000176
:1010A000AA5F0001B0510001AB5B05D0000E00014A
:1010B000AB6F000EAA6F800E0001B1BF7F0E000162
:1010C000936F0001AA510001B15D0001AB51800A8C
:1010D00000019359D8B00BD00001B1510001AA5FB3
:1010E000000E0001B1BFFF0E0001AB5B05D0000E8A
:1010F0000001AB6F000EAA6F0001A8A521D0030E5E
:101100000001A8150001936F000E0001A915000150
:10111000946F0001935100019411D8B403D02D0EA7
:1011200089EC18F00001AA510001AB11D8B472D0BB
:10113000300E89EC18F00001AA07D8A0AB07F2D74F
:101140000001AA510001AB11D8B40DD0200E89ECDA
:1011500018F00001AA07D8A0AB070001AA510001AE
:10116000AB11D8A4F3D7030E0001A8150001936FAB
:10117000000E0001A9150001946F000193510001B8
:101180009411D8B447D02D0E89EC18F043D0AFC0DD
:1011900093F0B0C094F00001D890933794370001D9
:1011A000D89093379437010E00019325F66E060E02
:1011B0009421F76E0900F5CF17F00900F5CF18F06C
:1011C0000900F5CF19F00A00F5CF1AF0A2C013F00C
:1011D000A3C014F0A4C015F0A5C016F0CBEC15F018
:1011E00013C020F014C021F015C022F016C023F067
:1011F0000A0E246E000E256E000E266E000E276E5F
:1012000079EC16F02050300F0001B16F0001B151A0
:1012100089EC18F00001AF07D8A0B0070001AF2992
:10122000B6E10001B029D8A4B2D78EC0F6FF8FC0B6
:10123000F7FF00018E4B8F2B0800F5CFB1F00001B6
:10124000B151D8B4120059EF03F000017E6F0001D4
:101250007EAF0AD100017E6D00017E51800A120F1F
:10126000D8A094D0000E246E030E236E000E1C6EC8
:101270000A0E1B6E000E166E640E156E00017E5176
:10128000136E146A13BE14060CEC16F013C019F09A
:1012900014C01AF089EC15F0090E1924216E000E05
:1012A0001A20226E2AEC18F0500E2124F66E060E3B
:1012B0002220F76E0900F5CF6CF00900F5CF6DF034
:1012C0000A00F5CF6EF0000E1C6E640E1B6E00015E
:1012D0007E51196E1A6A19BE1A0689EC15F0120EA3
:1012E0001924216E000E1A20226E000E246E030EA9
:1012F000236E2AEC18F0500E2124F66E060E2220E2
:10130000F76E0900F5CF69F00900F5CF6AF00A0021
:10131000F5CF6BF0DFEC0FF069C07BF06AC07CF0BA
:101320006BC07DF07BC069F07CC06AF07DC06BF063
:10133000000E246E030E236E000E166E0A0E156E3E
:1013400000017E51136E146A13BE14060CEC16F0E5
:1013500013C021F014C022F02AEC18F0500E212402
:10136000F66E060E2220F76E0900F5CF6CF009002C
:10137000F5CF6DF00A00F5CF6EF0DFEC0FF069C02D
:1013800078F06AC079F06BC07AF0120000017E51EB
:10139000800A750FD8A055D0000E1C6E0A0E1B6E69
:1013A00000017E51196E1A6A19BE1A0689EC15F0F1
:1013B000090E1924216E000E1A20226E000E246ED2
:1013C000030E236E2AEC18F0500E2124F66E060E42
:1013D0002220F76E0900F5CF69F00900F5CF6AF019
:1013E0000A00F5CF6BF0000E246E030E236E000E84
:1013F000166E0A0E156E00017E51136E146A13BE2E
:1014000014060CEC16F013C021F014C022F02AECE4
:1014100018F0500E2124F66E060E2220F76E0900F9
:10142000F5CF6CF00900F5CF6DF00A00F5CF6EF046
:10143000DFEC0FF069C078F06AC079F06BC07AF029
:10144000120000017E51030D500EF324F66E060EBD
:10145000F420F76E0900F5CF78F00900F5CF79F0A8
:101460000A00F5CF7AF0120000017E51800A120FB7
:10147000D8A094D0000E246E030E236E000E1C6EB6
:101480000A0E1B6E000E166E640E156E00017E5164
:10149000136E146A13BE14060CEC16F013C019F088
:1014A00014C01AF089EC15F0090E1924216E000EF3
:1014B0001A20226E2AEC18F0290E2124F66E060E50
:1014C0002220F76E0900F5CF6CF00900F5CF6DF022
:1014D0000A00F5CF6EF0000E1C6E640E1B6E00014C
:1014E0007E51196E1A6A19BE1A0689EC15F0120E91
:1014F0001924216E000E1A20226E000E246E030E97
:10150000236E2AEC18F0290E2124F66E060E2220F6
:10151000F76E0900F5CF69F00900F5CF6AF00A000F
:10152000F5CF6BF0DFEC0FF069C07BF06AC07CF0A8
:101530006BC07DF07BC069F07CC06AF07DC06BF051
:10154000000E246E030E236E000E166E0A0E156E2C
:1015500000017E51136E146A13BE14060CEC16F0D3
:1015600013C021F014C022F02AEC18F0290E212417
:10157000F66E060E2220F76E0900F5CF6CF009001A
:10158000F5CF6DF00A00F5CF6EF0DFEC0FF069C01B
:1015900078F06AC079F06BC07AF0120000017E51D9
:1015A000800A750FD8A055D0000E1C6E0A0E1B6E57
:1015B00000017E51196E1A6A19BE1A0689EC15F0DF
:1015C000090E1924216E000E1A20226E000E246EC0
:1015D000030E236E2AEC18F0290E2124F66E060E57
:1015E0002220F76E0900F5CF69F00900F5CF6AF007
:1015F0000A00F5CF6BF0000E246E030E236E000E72
:10160000166E0A0E156E00017E51136E146A13BE1B
:1016100014060CEC16F013C021F014C022F02AECD2
:1016200018F0290E2124F66E060E2220F76E09000E
:10163000F5CF6CF00900F5CF6DF00A00F5CF6EF034
:10164000DFEC0FF069C078F06AC079F06BC07AF017
:10165000120000017E51030D290EF324F66E060ED2
:10166000F420F76E0900F5CF78F00900F5CF79F096
:101670000A00F5CF7AF012004650D8B4120088EC78
:1016800017F00001B26F0001B251416E426A415041
:101690004FEC17F041C0B2F042C0B3F00001B46BA0
:1016A000B2C013F0B3C014F0B4C015F0310E166E12
:1016B000000E176E000E186E44EC16F01350141046
:1016C000D8A411D0000E406E010E3F6E960E0001A0
:1016D0008E6F060E00018F6F3FC090F040C091F0FA
:1016E00051EC03F0120041C0B2F042C0B3F000016F
:1016F000B46BB2C013F0B3C014F0B4C015F0320E26
:10170000166E000E176E000E186E44EC16F0135095
:101710001410D8A411D0000E406E020E3F6E960E2B
:1017200000018E6F060E00018F6F3FC090F040C029
:1017300091F051EC03F0120041C0B2F042C0B3F09E
:101740000001B46BB2C013F0B3C014F0B4C015F014
:10175000330E166E000E176E000E186E44EC16F067
:1017600013501410D8A411D0000E406E030E3F6E1B
:10177000960E00018E6F060E00018F6F3FC090F035
:1017800040C091F051EC03F0120041C0B2F042C0F1
:10179000B3F00001B46BB2C013F0B3C014F0B4C026
:1017A00015F0340E166E000E176E000E186E44EC17
:1017B00016F013501410D8A411D0000E406E040E71
:1017C0003F6E960E00018E6F060E00018F6F3FC0B8
:1017D00090F040C091F051EC03F0120041C0B2F023
:1017E00042C0B3F00001B46BB2C013F0B3C014F048
:1017F000B4C015F0350E166E000E176E000E186E82
:1018000044EC16F013501410D8A411D0000E406E02
:10181000050E3F6E960E00018E6F060E00018F6F53
:101820003FC090F040C091F051EC03F0120041C075
:10183000B2F042C0B3F00001B46BB2C013F0B3C059
:1018400014F0B4C015F0740E166E000E176E000E74
:10185000186E44EC16F013501410D8A411D0000EDA
:10186000406E060E3F6E960E00018E6F060E000152
:101870008F6F3FC090F040C091F051EC03F0120028
:1018800041C0B2F042C0B3F00001B46BB2C013F07B
:10189000B3C014F0B4C015F0660E166E000E176ECD
:1018A000000E186E44EC16F013501410D8A411D08A
:1018B000000E406E070E3F6E960E00018E6F060EF4
:1018C00000018F6F3FC090F040C091F051EC03F0E9
:1018D000120041C0B2F042C0B3F00001B46BB2C01C
:1018E00013F0B3C014F0B4C015F0630E166E000E02
:1018F000176E000E186E44EC16F013501410D8A496
:1019000011D0000E406E080E3F6E960E00018E6FD5
:10191000060E00018F6F3FC090F040C091F051EC77
:1019200003F0120041C0B2F042C0B3F00001B46B4A
:10193000B2C013F0B3C014F0B4C015F0730E166E3D
:10194000000E176E000E186E44EC16F013501410B3
:10195000D8A411D0000E406E090E3F6E960E000105
:101960008E6F060E00018F6F3FC090F040C091F067
:1019700051EC03F01200770E00018E6F060E00018D
:101980008F6F51EC03F012000001816F6D0E0001AA
:101990008165A2D0000E246E030E236E000E1C6E15
:1019A0000A0E1B6E000E166E640E156E81C013F0CB
:1019B000146A0CEC16F013C019F014C01AF089EC7C
:1019C00015F0090E1924216E000E1A20226E2AEC41
:1019D00018F0500E2124F66E060E2220F76E090034
:1019E000F5CF6CF00900F5CF6DF00A00F5CF6EF081
:1019F000000E1C6E640E1B6E81C019F01A6A89EC11
:101A000015F0120E1924216E000E1A20226E000EFF
:101A1000246E030E236E2AEC18F0500E2124F66E6D
:101A2000060E2220F76E0900F5CF69F00900F5CF08
:101A30006AF00A00F5CF6BF0DFEC0FF069C07EF0C2
:101A40006AC07FF06BC080F0000E246E030E236E20
:101A5000000E166E0A0E156E81C013F0146A0CEC9F
:101A600016F013C021F014C022F02AEC18F0500E2A
:101A70002124F66E060E2220F76E0900F5CF6CF0D9
:101A80000900F5CF6DF00A00F5CF6EF07EC069F069
:101A90007FC06AF080C06BF0DFEC0FF069C07BF0B4
:101AA0006AC07CF06BC07DF07BC069F07CC06AF0DE
:101AB0007DC06BF0000E00016C6F000E00016D6FB9
:101AC0003F0E00016E6FDFEC0FF069C078F06AC066
:101AD00079F06BC07AF012000A0E0001816566D0C1
:101AE000000E246E030E236E000E166E0A0E156E87
:101AF00081C013F0146A0CEC16F013C021F014C06E
:101B000022F02AEC18F0500E2124F66E060E222048
:101B1000F76E0900F5CF6CF00900F5CF6DF00A0003
:101B2000F5CF6EF0000E1C6E0A0E1B6E81C019F010
:101B30001A6A89EC15F0090E1924216E000E1A207C
:101B4000226E000E246E030E236E2AEC18F0500E47
:101B50002124F66E060E2220F76E0900F5CF69F0FB
:101B60000900F5CF6AF00A00F5CF6BF0DFEC0FF05B
:101B700069C07EF06AC07FF06BC080F07EC069F003
:101B80007FC06AF080C06BF0000E00016C6F000E29
:101B900000016D6F3F0E00016E6FDFEC0FF069C04A
:101BA00078F06AC079F06BC07AF0120000018151C0
:101BB000030D500EF324F66E060EF420F76E0900A6
:101BC000F5CF69F00900F5CF6AF00A00F5CF6BF0A8
:101BD000000E00016C6F000E00016D6F3F0E0001E2
:101BE0006E6FDFEC0FF069C078F06AC079F06BC0FF
:101BF0007AF0120079EC18F0F28EF28CD3508F0B41
:101C00006009D36EC68AC650F00B0809C66EC69E20
:101C10000F013A970F013A9994869488000EC56E89
:101C2000130EC86E000EC76EF28EF288F086F29226
:101C3000F090F18CF18A000E926E000E0F01386F59
:101C4000800E936E000E0F01396F3CEC0BF03F04D9
:101C50004010D8A40BD0000E156E800E146E000E2E
:101C6000176E010E166EBCEC17F0AFD0020E3F18C7
:101C70004010D8A417D03FC018F040C019F0ACEC09
:101C800016F018C03DF019C03EF03DC08EF03EC0C9
:101C90008FF08AEC14F08EC0C5F08FC0C6F090C0F3
:101CA000C7F093D0030E3F184010D8A417D03FC000
:101CB00018F040C019F0ACEC16F018C03DF019C097
:101CC0003EF03DC08EF03EC08FF05DEC12F08EC055
:101CD000C5F08FC0C6F090C0C7F077D0040E3F1893
:101CE0004010D8A417D03FC018F040C019F0ACEC99
:101CF00016F018C03DF019C03EF03DC078F03EC06F
:101D000079F078EC13F078C0C5F079C0C6F07AC0ED
:101D1000C7F05BD0050E3F184010D8A417D03FC0C5
:101D200018F040C019F0ACEC16F018C03DF019C026
:101D30003EF03DC078F03EC079F0EEEC12F078C095
:101D4000C5F079C0C6F07AC0C7F03FD0060E3F1884
:101D50004010D8A40BD0000E156E800E146E000E2D
:101D6000176E060E166EBCEC17F02FD0070E3F183C
:101D70004010D8A40BD0000E156E800E146E000E0D
:101D8000176E070E166EBCEC17F01FD0080E3F182A
:101D90004010D8A40BD0000E156E800E146E000EED
:101DA000176E080E166EBCEC17F00FD0090E3F1818
:101DB0004010D8A40AD0000E156E800E146E000ECE
:101DC000176E090E166EBCEC17F00001C55100012C
:101DD000C6110001C711D8B417D0870E00018E6F4D
:101DE000060E00018F6FC5C090F0C6C091F0C7C04D
:101DF00092F051EC03F0000E0001C56F000E0001DF
:101E0000C66F000E0001C76F000E406E000E3F6EE1
:101E10001CD729C02DF02E6A2F6A28342D3601E3F5
:101E20002E802D50326E2CC02DF02E6A2F6A2B344E
:101E30002D3601E32E802D50316E3250D8B40BD0A8
:101E40003150325CD8B00ED03250000831242D6EA3
:101E5000180E2D6407D02AC027F02BC028F02CC004
:101E600029F012003150D8B40BD03250315CD8B0C8
:101E70000ED03150000832242D6E180E2D6407D07C
:101E800027C027F028C028F029C029F01200060E2C
:101E9000306E29BE308E2CBE308C288EFF0E271659
:101EA000FF0E2816000E29162B8EFF0E2A16FF0E87
:101EB0002B16000E2C163150325CD8B01BD0D890A7
:101EC0002A362B362C36310632503118D8B40DD084
:101ED000300630C02DF0070E2D16D8B406D0EFD73F
:101EE000D890293228322732322A31503218D8B4C9
:101EF0001FD0F6D73250315CD8B01AD0D8902736E0
:101F000028362936320632503118D8B40DD0300672
:101F100030C02DF0070E2D16D8B406D0EFD7D890CC
:101F20002C322B322A32312A31503218D8A4F7D72A
:101F300030AE0CD0FF0E271AFF0E281AFF0E291AFA
:101F4000010E2726000E2822000E292230AC0CD0CC
:101F5000FF0E2A1AFF0E2B1AFF0E2C1A010E2A262C
:101F6000000E2B22000E2C22000E306E27502A2647
:101F700028502B2229502C222CAE0ED0FF0E2A1ACC
:101F8000FF0E2B1AFF0E2C1A010E2A26000E2B22F2
:101F9000000E2C22010E306E2AC013F02BC014F05C
:101FA0002CC015F032C016F030C017F0EAEC14F077
:101FB00013C027F014C028F015C029F012006BC020
:101FC0006FF00001706B716B00016A3500016F37B3
:101FD00001E3708100016F510001726F00017251C5
:101FE000D8A40AD0000E0001696F000E00016A6FCC
:101FF000000E00016B6F12006EC06FF00001706B7D
:10200000716B00016D3500016F3701E370810001D4
:102010006F510001776F00017751D8A40AD0000EEC
:102020000001696F000E00016A6F000E00016B6F06
:102030001200000177517B0F000172276BC077F00F
:1020400000016E510001771B800E0001771700011F
:102050006A8F00016D8FFF0E00016C17FF0E0001EB
:102060006D17000E00016E17000E0001736F000E59
:102070000001746F000E0001756F070E0001766F8E
:10208000000169A10CD000016C510001732700010F
:102090006D510001742300016E5100017523000190
:1020A000D8906B336A3369330001D8906C376D3741
:1020B0006E370001762FE4D7090E0001766F00011C
:1020C00069A10CD000016C510001732700016D5112
:1020D0000001742300016E51000175230001D890A6
:1020E0006B336A3369330001D890753374337333BB
:1020F0000001762FE4D773C013F074C014F075C0DC
:1021000015F072C016F077C017F0EAEC14F013C0A7
:1021100069F014C06AF015C06BF0120081C083F042
:102120000001846B856B000180350001833701E37A
:1021300084810001835100018D6F00018D51D8A46D
:102140000AD0000E00017F6F000E806F000E816FBD
:10215000000E826F1200170E0001836F7FC084F0A3
:1021600080C085F081C086F0000183290001876F5F
:1021700005D00001D8908633853384330001872F42
:10218000F8D7000184510001886F0001808FFF0E95
:1021900000017F17FF0E00018017000E000181175C
:1021A00000017F510001896F0001805100018A6F99
:1021B0000001815100018B6F00018C6B8E0E0001BC
:1021C0008D5F00018DAF1AD000018D51800A8F0FF5
:1021D000D8B00AD0000E00017F6F000E806F000E95
:1021E000816F000E826F12000001D8908C338B3308
:1021F0008A33893300018D3FF7D71BD0170E0001BA
:102200008D6512D0000E00017F6F000E806F000EF2
:10221000816F000E826F12000001D89089378A37D3
:102220008B378C3700018D0700018D510001D8A438
:10223000F3D7000188510001D8B409D000018C1FE8
:102240008B1F8A1F896D000E8A238B238C2389C0E4
:102250007FF08AC080F08BC081F08CC082F01200C9
:1022600015C019F01A6A1B6A1434193601E31A8072
:102270001950216E2150D8A409D0000E136E000E03
:10228000146E000E156E000E166E120018C019F0B6
:102290001A6A1B6A1734193601E31A801950206E26
:1022A0002050D8A409D0000E136E000E146E000E3C
:1022B000156E000E166E1200148EFF0E1316FF0E12
:1022C0001416000E1516178EFF0E1616FF0E171693
:1022D000000E1816000E1C6E000E1D6E000E1E6EF7
:1022E000000E1F6E7F0E215E2050980F215E180E8B
:1022F000206ED8901C361D361E361F361650135CC5
:102300001750145818501558D8A007D01650135EFF
:102310001750145A1850155A1C80D890133614367A
:102320001536202EE6D721AE16D02150800A970F01
:10233000D8B009D0000E136E000E146E000E156E8C
:10234000000E166E1200D8901F321E321D321C3243
:10235000213EF9D715D0170E21640FD0000E136E51
:10236000000E146E000E156E000E166E1200D89040
:102370001C361D361E361F3621062150D8A4F7D72D
:102380001CC013F01DC014F01EC015F01FC016F0C5
:102390001200153416341E6E1E50D8A409D0000E3B
:1023A000136E000E146E000E156E000E166E1200E7
:1023B000183419341D6E1D50D8A409D0000E136EA8
:1023C000000E146E000E156E000E166E1200158EA5
:1023D000FF0E1316FF0E1416FF0E1516000E16161E
:1023E000188EFF0E1616FF0E1716FF0E1816000E8B
:1023F0001916000E196E000E1A6E000E1B6E000EDE
:102400001C6E7F0E1E5E1D50A00F1E5E200E1D6EE8
:10241000D89019361A361B361C361650135C1750D6
:1024200014581850155819501658D8A009D01650DD
:10243000135E1750145A1850155A1950165A19800D
:10244000D89013361436153616361D2EE1D71EAE2B
:1024500016D01E50800A9F0FD8B009D0000E136E00
:10246000000E146E000E156E000E166E1200D8903F
:102470001C321B321A3219321E3EF9D715D01F0EEC
:102480001E640FD0000E136E000E146E000E156E3B
:10249000000E166E1200D89019361A361B361C36EE
:1024A0001E061E50D8A4F7D719C013F01AC014F096
:1024B0001BC015F01CC016F01200C00E366E7F0E49
:1024C000376E440E386E8EC01BF08FC01CF04FEC80
:1024D00018F01BC033F01CC034F01DC035F002EC06
:1024E00014F033C069F034C06AF035C06BF0000EF0
:1024F00000016C6F980E00016D6F400E00016E6F51
:10250000DFEC0FF069C091F06AC092F06BC093F0FD
:10251000620E366E210E376E3D0E386EBC0E2A6E80
:10252000160E2B6EBB0E2C6E91C027F092C028F0B9
:1025300093C029F009EC0FF027C033F028C034F025
:1025400029C035F002EC14F033C07FF034C080F0C5
:1025500035C081F08EEC10F07FC094F080C095F013
:10256000000E2A6E000E2B6E420E2C6E660E0001BF
:102570006C6FE60E00016D6F3F0E00016E6F94C030
:102580001BF095C01CF06CEC17F01BC069F01CC070
:102590006AF01DC06BF0DFEC0FF069C027F06AC075
:1025A00028F06BC029F009EC0FF027C07FF028C09D
:1025B00080F029C081F08EEC10F07FC096F080C0D2
:1025C00097F096C01BF097C01CF04FEC18F01BC0A2
:1025D0008EF01CC08FF01DC090F01200C00E366E41
:1025E0007F0E376E440E386E78C01BF079C01CF039
:1025F0004FEC18F01BC033F01CC034F01DC035F098
:1026000002EC14F033C069F034C06AF035C06BF0EE
:10261000000E00016C6F980E00016D6F400E0001FE
:102620006E6FDFEC0FF069C07EF06AC07FF06BC0A8
:1026300080F0000E00016C6F200E00016D6F420EE5
:1026400000016E6F7EC069F07FC06AF080C06BF0E1
:10265000DFEC0FF069C027F06AC028F06BC029F0EA
:10266000000E2A6EC80E2B6E420E2C6E09EC0FF077
:1026700027C07EF028C07FF029C080F0000E366EA3
:10268000200E376E420E386E000E00016C6F100E79
:1026900000016D6F410E00016E6F7EC069F07FC05A
:1026A0006AF080C06BF0DFEC0FF069C033F06AC0F5
:1026B00034F06BC035F002EC14F033C027F034C0B6
:1026C00028F035C029F0000E2A6E880E2B6EC10E40
:1026D0002C6E09EC0FF027C07BF028C07CF029C0DD
:1026E0007DF07BC078F07CC079F07DC07AF012007C
:1026F000C00E366E7F0E376E440E386E78C01BF0FB
:1027000079C01CF04FEC18F01BC033F01CC034F043
:102710001DC035F002EC14F033C069F034C06AF02B
:1027200035C06BF0000E00016C6F980E00016D6FEC
:10273000400E00016E6FDFEC0FF069C07EF06AC0E2
:102740007FF06BC080F0000E00016C6F200E000166
:102750006D6F420E00016E6F7EC069F07FC06AF03F
:1027600080C06BF0DFEC0FF069C027F06AC028F082
:102770006BC029F0000E2A6E480E2B6E420E2C6E96
:1027800009EC0FF027C07EF028C07FF029C080F050
:10279000000E366E440E376E420E386E000E00018B
:1027A0006C6F880E00016D6F420E00016E6F7EC06F
:1027B00069F07FC06AF080C06BF0DFEC0FF069C099
:1027C00033F06AC034F06BC035F002EC14F033C063
:1027D00027F034C028F035C029F0000E2A6E400ED4
:1027E0002B6E400E2C6E09EC0FF027C07BF028C03A
:1027F0007CF029C07DF07BC078F07CC079F07DC092
:102800007AF0120035C060F00001616B626B343405
:102810000001603701E36181000160510001676FD1
:1028200000016751D8A407D0000E336E000E346E3D
:10283000000E356E120038C060F00001616B626BF3
:1028400037340001603701E361810001605100010C
:10285000686F00016851D8A407D0000E336E000ED7
:10286000346E000E356E1200000E0001646F000E13
:102870000001656F000E0001666F00016851890F4D
:102880000001675F35C068F038500001681B800E9A
:1028900000016817348EFF0E3316FF0E3416000E3B
:1028A0003516378EFF0E3616FF0E3716000E381609
:1028B000180E0001636F0001D890643765376637E2
:1028C0003650335C3750345838503558D8A008D07B
:1028D0003650335E3750345A3850355A00016481CF
:1028E000D8903336343635360001632FE4D764C0D0
:1028F00013F065C014F066C015F067C016F068C02C
:1029000017F0EAEC14F013C033F014C034F015C023
:1029100035F01200C00E366E7F0E376E440E386EE4
:102920008EC01BF08FC01CF04FEC18F01BC033F0B2
:102930001CC034F01DC035F002EC14F033C069F057
:1029400034C06AF035C06BF0480E00016C6F910E18
:1029500000016D6F400E00016E6FDFEC0FF069C07B
:1029600091F06AC092F06BC093F0620E366E210E49
:10297000376E3D0E386EBC0E2A6E160E2B6EBB0ED9
:102980002C6E91C027F092C028F093C029F009EC7A
:102990000FF027C033F028C034F029C035F002EC26
:1029A00014F033C07FF034C080F035C081F08EEC7D
:1029B00010F07FC094F080C095F094C01BF095C0DB
:1029C0001CF04FEC18F01BC08EF01CC08FF01DC027
:1029D00090F012001650D8B405D0135014101510F2
:1029E000D8A40CD0000E136E000E146E000E156EDF
:1029F0001200162AD890153214321332000E131416
:102A0000186E000E1414196EFE0E15141A6E18505E
:102A100019101A10D8B40CD0ECD7162A010E1326B0
:102A2000000E1422000E1522D890153214321332E3
:102A3000000E1314186E000E1414196EFF0E1514E8
:102A40001A6E185019101A10D8B406D0E6D7160608
:102A5000D89013361436153614BE03D0020E166005
:102A6000F6D716A0149ED89016321650151217508D
:102A7000D8A4158E13C013F014C014F015C015F0AF
:102A8000120015AE16D013C019F014C01AF015C0FC
:102A90001BF0191E1A1E1B1E192A000E1A221B22B9
:102AA000000E1924136E000E1A20146E800E1B20C7
:102AB000156E18AE16D016C019F017C01AF018C04F
:102AC0001BF0191E1A1E1B1E192A000E1A221B2289
:102AD000000E1924166E000E1A20176E800E1B2091
:102AE000186E000E131A000E141A800E151A000E1E
:102AF000161A000E171A800E181A1650135C17506B
:102B0000145818501558D8B002D0D8901200D88058
:102B10001200000E1E6E1CAE06D01B6C1C1ED8B020
:102B20001C2A010E1E6E1AAE06D0196C1A1ED8B0E1
:102B30001A2A010E1E1A000E206E000E1F6E1B5068
:102B40001C10D8B41CD0010E1D6E04D0D8901B36BA
:102B50001C361D2A1CAEFAD7D8901F3620361B50C3
:102B6000195C1C501A58D8A005D01B50195E1C5077
:102B70001A5A1F80D8901C321B321D2EEDD71E50C2
:102B8000D8B404D01F6C201ED8B0202A1FC019F062
:102B900020C01AF01200000E1B6E000E1C6E000EFC
:102BA0001D6E000E1E6E1750181019101A10D8B492
:102BB0002AD0010E1F6E06D0D89017361836193657
:102BC0001A361F2A1AAEF8D7D8901B361C361D3677
:102BD0001E361750135C18501458195015581A50B7
:102BE0001658D8A009D01750135E1850145A19500F
:102BF000155A1A50165A1B80D8901A3219321832A8
:102C000017321F2EE1D71BC013F01CC014F01DC0DB
:102C100015F01EC016F01200000E186E14AE06D08D
:102C2000136C141ED8B0142A010E186E16AE04D000
:102C3000156C161ED8B0162A15501610D8B418D018
:102C4000010E176E04D0D89015361636172A16AE18
:102C5000FAD71550135C16501458D8A004D015504C
:102C6000135E1650145AD89016321532172EF1D71B
:102C70001850D8B404D0136C141ED8B0142A13C042
:102C800013F014C014F012000CD0010E1326000E25
:102C90001422000E1522010E1626000E1722000E19
:102CA000182213C0F6FF14C0F7FF15C0F8FF080084
:102CB000F5CF19F016C0F6FF17C0F7FF18C0F8FFE0
:102CC0000800F550000819241A6E1A50D8A40BD029
:102CD00013C0F6FF14C0F7FF15C0F8FF0800F55049
:102CE0000009D8A4D2D71A50136E146A13BE140662
:102CF00012002450251026102710D8B424D0010E1D
:102D0000286E06D0D8902436253626362736282A2F
:102D100027AEF8D72450205C255021582650225841
:102D200027502358D8A008D02450205E2550215A7F
:102D30002650225A2750235AD8902732263225323D
:102D40002432282EE7D720C020F021C021F022C055
:102D500022F023C023F01200000E156E800E146EB8
:102D600018C016F019C017F0BCEC17F0000E156E65
:102D7000810E146E0AEC17F014C03BF015C03CF045
:102D8000000E156E810E146E0AEC17F014C039F0A7
:102D900015C03AF0000E3E6E000E3D6E39501B6EAF
:102DA0001A6A3B501A123C501B123D501A10186EF2
:102DB0003E501B10196E12008E0E236E06D0D89056
:102DC0001E321D321C321B32232A000E1B141F6EB2
:102DD000000E1C14206E000E1D14216EFF0E1E141A
:102DE000226E1F50201021102210D8A4E8D71BC03B
:102DF00013F01CC014F01DC015F023C016F0000E17
:102E0000176EEAEC14F013C01BF014C01CF015C0D0
:102E10001DF01200C58070EC18F09E96C9CF16F018
:102E2000176A14C0C9FF9EA6FED7C5AC08D0C584DA
:102E300070EC18F0000E156E000E146E12009E96C7
:102E4000C58670EC18F0C9CF16F0176A9E96C58437
:102E5000C5B4FED716C014F017C015F012003650D6
:102E600037103810D8B406D0000E361A000E371AB4
:102E7000800E381A33C027F034C028F035C029F04E
:102E800036C02AF037C02BF038C02CF009EC0FF018
:102E900027C033F028C034F029C035F01200136E7B
:102EA0004B50D8B4FDD7A3B803D013C073FF12D0D2
:102EB000A3984A50010DBD0EF324D96E000EF420E4
:102EC000DA6E13C0DFFF4A2A070E4A6402D0000EF2
:102ED0004A6E4B06A3881200000E1E6E1CAE06D072
:102EE0001B6C1C1ED8B01C2A010E1E6E1BC013F0DA
:102EF0001CC014F0156A8E0E166E1EC017F0EAEC98
:102F000014F013C01BF014C01CF015C01DF012000B
:102F1000000E136E4650D8B4FDD74750010DB50EC4
:102F2000F324D96E000EF420DA6EDF50136E472AB8
:102F3000070E476402D0000E476EA39A4606A38A86
:102F400013501200A39AA398080E706E900E716E23
:102F5000240E726E670E756E000E766E000E4A6E4F
:102F6000000E496E080E4B6E000E486E000E476E46
:102F7000000E466EA38A1200C58070EC18F09E9673
:102F800014C0C9FF9EA6FED7C5AC04D0C584C5A495
:102F90001200FDD79E9616C0C9FF9EA6FED79E962C
:102FA000C58470EC18F01200080E4B6012D0495026
:102FB000010DBD0EF324D96E000EF420DA6EDF5041
:102FC000736E492A070E496402D0000E496E4B2ADF
:102FD0001200A3981200000E896E000E8A6E000E79
:102FE0008B6E92689F0E936E9468FC0E0F013A6F81
:102FF0003F0E0F01396F2F0E0F01386F6168F19E80
:10300000120071A202D0719871884850010DB50E5E
:10301000F324D96E000EF420DA6E74CFDFFF482A55
:10302000070E486402D0000E486E462A120000EED9
:10303000B5F0130EEE6AE806FDE100EE39F0120E6F
:10304000EE6AE806FDE14C904C92000EF86E00012D
:10305000FAEF0DF021502302F3CF25F0F4CF26F044
:1030600021502402F350262622502302F350262614
:1030700025C021F026C022F01200135014101510A4
:10308000D8B406D0000E131A000E141A800E151AAA
:1030900013C013F014C014F015C015F012001BC0BB
:1030A00013F01CC014F0156A8E0E166E000E176E0B
:1030B000EAEC14F013C01BF014C01CF015C01DF096
:1030C0001200156E000E146E3A0E156005D02F0E0C
:1030D000156402D0010E146E14C013F013301200E8
:1030E000C7B4FED7C5CF13F01F0E1316D8B4120005
:1030F000F7D78EEC18F0EBEC17F082EC18F0A2EC9E
:1031000017F01200600ED36E040ED26E000E9B6E8E
:103110001200146E14504FEC17F01200D09E1200E3
:020000040020DA
:08000000FFFFFFFFFFFFFFFF00
:020000040030CA
:0E000000FF381F3CFFBF85FF0FC00FE00F4011
:00000001FF
