:04000000A6EF00F077
:100008004782FACF05F0FBCF06F0E9CF07F0EACF39
:1000180008F0E1CF09F0E2CF0AF0D9CF0BF0DACF40
:100028000CF0F3CF0DF0F4CF0EF0F6CF0FF0F7CFC2
:1000380010F0F8CF11F0F5CF12F047C013F048C018
:1000480014F049C015F04AC016F0F2A20DD0F29291
:10005800434A442A445004E1050E435CD8A004D026
:10006800000E446E000E436E9EA645D0C698C6BECE
:1000780002D0C6AC06D0C9CF3FF0406AC69EC69C27
:10008800C698C7B407D009EC18F001C041F002C007
:1000980042F031D0C7A42FD0020E41184210D8A484
:1000A80007D03DC003F03EC004F03EEC17F023D06B
:1000B800030E41184210D8A407D03DC003F03EC03B
:1000C80004F03EEC17F017D0040E41184210D8A4E3
:1000D80007D03BC003F03CC004F03EEC17F00BD057
:1000E800050E41184210D8A406D039C003F03AC012
:1000F80004F03EEC17F09E9616C04AF015C049F081
:1001080014C048F013C047F012C0F5FF11C0F8FF43
:1001180010C0F7FF0FC0F6FF0EC0F4FF0DC0F3FFCD
:100128000CC0DAFF0BC0D9FF0AC0E2FF09C0E1FF2B
:1001380008C0EAFF07C0E9FF06C0FBFF05C0FAFFD9
:080148004792110093EF17F03C
:1006000000010000000A00000064000000E8030090
:100610000010270000A086010040420F008096983D
:100620000000E1F50500CA9A3B00803F0020410030
:10063000C842007A44401C4650C347247449971866
:100640004BBCBE4C6B6E4E03155079AD60F34971D7
:1006500000803FCDCC3DD7233C12833AB7D138C67A
:100660002737388635C0D633CC2B32708930E7DB5C
:100670002EE53C1E42A20D74656D70657261747545
:10068000726520202020200073616C696E69747986
:10069000206C6576656C202000636172626F6E204D
:1006A0006C6576656C2020200043202020202020CF
:1006B0002020202020202000462020202020202034
:1006C0002020202020200070706D2020202020205D
:1006D0002020202000707074202020202020202046
:1006E00020200054656D7065726174757265002517
:0906F000302E3266002564000082
:1006FA00980E0001A46F000E0001A56F93EF09F098
:10070A00250E0001B919D8B40BD094C0D9FF95C0F1
:10071A00DAFFB9C0DFFF0001944B952B93EF09F084
:10072A00000E0001B36F000EB26F000E0001B16F30
:10073A00000EB06F05D00001B0850001964B972BD3
:10074A0096C0F6FF97C0F7FF0800F550300AD8B4F4
:10075A00F2D796C0F6FF97C0F7FF0800F550FAECFB
:10076A0017F0D8A03FD0000E0001B36F000EB26F91
:10077A00B2C025F0B3C026F0000E286E0A0E276E0E
:10078A00C4EC17F025C0B2F026C0B3F0D00E0001B9
:10079A009B6FFF0E00019C6F96C0F6FF97C0F7FF94
:1007AA000800F55000019D6F9E6B00019B510001EE
:1007BA009D2700019C5100019E2300019D510001CB
:1007CA00B22700019E510001B3230001964B972BDB
:1007DA0096C0F6FF97C0F7FF0800F550FAEC17F03D
:1007EA00D8B0C6D796C0F6FF97C0F7FF0800F550F5
:1007FA002E0AD8A434D00001B18D0001964B972B54
:10080A00000E0001B86F000EB76F1ED0B7C025F0FA
:10081A00B8C026F0000E286E0A0E276EC4EC17F038
:10082A0096C0F6FF97C0F7FF0800F5502526000E80
:10083A002622D00E25240001B76FFF0E26200001C4
:10084A00B86F0001964B972B96C0F6FF97C0F7FF3B
:10085A000800F550FAEC17F0D8A00CD0D7D7000E44
:10086A000001B86F000EB76F0001B18903D0000113
:10087A00B1851AD096C0F6FF97C0F7FF0001964BD4
:10088A00972B0800F5CFB9F00001B951000AD8B486
:10089A00A2EF09F0640AD8B407D0020AD8B4E7D79D
:1008AA000F0AD8A493EF09F0070E0001B115D8B4C6
:1008BA009FD30001B1A905D0000E0001B86F060E42
:1008CA00B76FA4C0D9FFA5C0DAFFDECFB4F0DECF80
:1008DA00B5F0DDCFB6F0030E0001A427000EA52364
:1008EA000001B6AF11D0B4C017F0B5C018F0B6C049
:1008FA0019F0D7EC17F017C0B4F018C0B5F019C04A
:10090A00B6F0030E0001B013000E0001AF6F000E27
:10091A00AE6F0001B4510001B5110001B611D8B48F
:10092A0091D0820E00019B6FFF0E00019C6FB4C034
:10093A009DF0B5C09EF0B6C09FF0B7C0A0F0100EF3
:10094A0006D00001D890A0339F339E339D33E82E02
:10095A00F8D700019D5100019B250001AE6F000EE2
:10096A0000019C210001AF6F0001AE07D8A0AF07BC
:10097A00AEC025F0AFC026F0000E286E030E276E1B
:10098A00C4EC17F025C0AEF026C0AFF0AEC01DF023
:10099A00AFC01EF0000E206E0A0E1F6E57EC15F047
:1009AA001DC0AEF01EC0AFF00001AFAF04D0000111
:1009BA00AE07D8A0AF070001AE510008A9EC09F0B4
:1009CA007EC0A6F07FC0A7F080C0A8F0A6C06FF0D6
:1009DA00A7C070F0A8C071F0B4C072F0B5C073F0CF
:1009EA00B6C074F023EC10F06FC0A6F070C0A7F088
:1009FA0071C0A8F0A6C017F0A7C018F0A8C019F0D7
:100A0A00000E1A6E800E1B6E3F0E1C6ECBEC14F09D
:100A1A00D8B005D00001AE07D8A0AF0713D0A6C042
:100A2A0017F0A7C018F0A8C019F0000E1A6E200E11
:100A3A001B6E410E1C6ECBEC14F0D8A003D0000143
:100A4A00AE4BAF2B0001B8BF08D00001B8511DE171
:100A5A000D0E0001B75DD8B018D0B4C02BF0B5C0E8
:100A6A002CF0B6C02DF00001B751C0EC0BF07EC0DF
:100A7A002EF07FC02FF080C030F0F6EC0CF02BC0C7
:100A8A00B4F02CC0B5F02DC0B6F00001AFBF08D04D
:100A9A000001AF512AE10A0E0001AE5DD8B025D09F
:100AAA000001B4510001B5110001B611D8B45FD0EC
:100ABA00B4C085F0B5C086F0B6C087F078EC11F006
:100ACA00000185510001861100018711000188117A
:100ADA00D8A44DD00001AFBF4AD00001AF5105E103
:100AEA00020E0001AE5DD8A042D0A6C017F0A7C082
:100AFA0018F0A8C019F0700E1A6E890E1B6E400EFF
:100B0A001C6ECBEC14F0D8B003D00001F70E02D063
:100B1A000001F80EAE27FF0EAF230001AE51A9EC7B
:100B2A0009F07EC0A6F07FC0A7F080C0A8F0B4C0CC
:100B3A0017F0B5C018F0B6C019F0A6C01AF0A7C0D1
:100B4A001BF0A8C01CF01AEC12F017C0AAF018C0CB
:100B5A00ABF019C0ACF01AC0ADF0000E0001B46FD2
:100B6A00000E0001B56F000E0001B66F33D0B4C09D
:100B7A0085F0B5C086F0B6C087F078EC11F085C074
:100B8A00AAF086C0ABF087C0ACF088C0ADF0B4C0A4
:100B9A0060F0B5C061F0B6C062F0AAC01FF0ABC089
:100BAA0020F0ACC021F0ADC022F045EC16F01FC019
:100BBA0063F020C064F021C065F018EC17F060C043
:100BCA00B4F061C0B5F062C0B6F0000E0001AF6FBC
:100BDA00000EAE6F010E0001B96F0A0E0001B919BD
:100BEA00D8B41ED00001B951040D010EF324F66EDB
:100BFA00060EF420F76E0900F5500001AA5D0900FF
:100C0A00F5500001AB590900F5500001AC59090033
:100C1A00F5500001AD59D8A003D00001B92BDDD79A
:100C2A00B9C09BF000019C6B9BBF9C070001B751A8
:100C3A0000019B270001B85100019C230001AE511D
:100C4A0000019B270001AF5100019C2300019B5129
:100C5A000001B25F00019C510001B35B0001B75172
:100C6A000001B811D8B404D00001B207D8A0B30764
:100C7A00030E0001B01500019B6F000E0001B115B3
:100C8A0000019C6F00019B5100019C11D8B404D053
:100C9A000001B207D8A0B3070001B0A53FD0030EE8
:100CAA000001B01500019B6F000E0001B115000193
:100CBA009C6F00019B5100019C11D8B417D094C0BD
:100CCA00D9FF95C0DAFF2D0EDF6E0001944B952BEC
:100CDA000DD094C0D9FF95C0DAFF300EDF6E000147
:100CEA00944B952B0001B207D8A0B3070001B3BFFC
:100CFA0081D00001B351EDE10001B205D8A07AD04C
:100D0A00E8D794C0D9FF95C0DAFF200EDF6E000144
:100D1A00944B952B0001B207D8A0B3070001B3BFCB
:100D2A0007D00001B351EDE10001B205D8B0E9D70F
:100D3A00030E0001B01500019B6F000E0001B115F2
:100D4A0000019C6F00019B5100019C11D8B452D044
:100D5A0094C0D9FF95C0DAFF2D0E48D0AAC017F06B
:100D6A00ABC018F0ACC019F0ADC01AF00001B9510F
:100D7A00040D010EF324F66E060EF420F76E090038
:100D8A00F5CF1BF00900F5CF1CF00900F5CF1DF0D7
:100D9A000A00F5CF1EF099EC15F017C0A6F018C09E
:100DAA00A7F019C0A8F01AC0A9F0A6C024F0A7C0DD
:100DBA0025F0A8C026F0A9C027F00A0E286E000E5A
:100DCA00296E000E2A6E000E2B6E12EC16F024C04D
:100DDA00A6F025C0A7F026C0A8F027C0A9F00001F8
:100DEA00A651300F94C0D9FF95C0DAFFDF6E00011B
:100DFA00944B952B0001B9070001B929D8B40ED03C
:100E0A00ADD794C0D9FF95C0DAFF300EDF6E00016E
:100E1A00944B952B0001AE07D8A0AF070001AFBFD6
:100E2A0007D00001AF51EDE10001AE05D8B0E9D716
:100E3A000001B8BF0CD00001B85105E1090E00014C
:100E4A00B75DD8A004D0080E0001B96F02D0B7C0B0
:100E5A00B9F00001B9510001B75F000E0001B9BF36
:100E6A00FF0E0001B85B0001B9510001D8B409D0E6
:100E7A0094C0D9FF95C0DAFF2E0EDF6E0001944BA5
:100E8A00952B0001B951A9EC09F07EC0A1F07FC0F1
:100E9A00A2F080C0A3F0B4C072F0B5C073F0B6C0BF
:100EAA0074F0A1C06FF0A2C070F0A3C071F023EC7F
:100EBA0010F06FC085F070C086F071C087F078ECD2
:100ECA0011F085C0AAF086C0ABF087C0ACF088C02C
:100EDA00ADF073D0AAC017F0ABC018F0ACC019F0CF
:100EEA00ADC01AF00001B951040D010EF324F66EDB
:100EFA00060EF420F76E0900F5CF1BF00900F5CFB6
:100F0A001CF00900F5CF1DF00A00F5CF1EF099EC90
:100F1A0015F017C0A6F018C0A7F019C0A8F01AC09B
:100F2A00A9F0A6C024F0A7C025F0A8C026F0A9C041
:100F3A0027F00A0E286E000E296E000E2A6E000E89
:100F4A002B6E12EC16F024C0A6F025C0A7F026C01E
:100F5A00A8F027C0A9F00001A651300F94C0D9FF0C
:100F6A0095C0DAFFDF6E0001944B952BAAC024F0DE
:100F7A00ABC025F0ACC026F0ADC027F00001B951D6
:100F8A00040D010EF324F66E060EF420F76E090026
:100F9A00F5CF28F00900F5CF29F00900F5CF2AF09E
:100FAA000A00F5CF2BF012EC16F024C0AAF025C0E7
:100FBA00ABF026C0ACF027C0ADF00001B9070001C4
:100FCA00B929D8B40ED086D794C0D9FF95C0DAFF14
:100FDA00300EDF6E0001944B952B0001B707D8A0A5
:100FEA00B8070001B7510001B811D8B497D1ECD7AE
:100FFA00A4C0D9FFA5C0DAFFDECFAAF0DDCFABF0DF
:10100A000001000EABBFFF0EAC6FAD6F020E000108
:10101A00A427000EA5230001ADAF0CD0030E0001DA
:10102A00B0130001AD1FAC1FAB1FAA6D000EAB239E
:10103A00AC23AD230001B7510001B811D8A40DD0DB
:10104A000001AA510001AB110001AC110001AD1160
:10105A00D8A403D00001B74BB82B010E0001B96F19
:10106A000A0E0001B919D8B41ED00001B951040DF5
:10107A00010EF324F66E060EF420F76E0900F55001
:10108A000001AA5D0900F5500001AB590900F550AD
:10109A000001AC590900F5500001AD59D8A003D0A0
:1010AA000001B92BDDD7800E0001B9BF7F0E000108
:1010BA009B6F0001B7510001B95D0001B851800A68
:1010CA0000019B59D8B003D0B7C0B9F018D00001BD
:1010DA00B851800A00019B6F0001B9510001B75D48
:1010EA00800E0001B9BF7F0E00019B59D8B007D00E
:1010FA000001B9510001B76FB86BB7BFB80700015B
:10110A00B2510001B311D8B414D0030E0001B015C6
:10111A0000019B6F000E0001B11500019C6F0001D8
:10112A009B5100019C11D8B404D00001B207D8A089
:10113A00B3070001B1AD1ED00001B2510001B75D85
:10114A000001B851800A00019B6F0001B351800A67
:10115A0000019B59D8B009D00001B7510001B25F14
:10116A000001B8510001B35B05D0000E0001B36F56
:10117A00000EB26F800E0001B9BF7F0E00019B6F97
:10118A000001B2510001B95D0001B351800A0001AA
:10119A009B59D8B00BD00001B9510001B25F000EC3
:1011AA000001B9BFFF0E0001B35B05D0000E0001BC
:1011BA00B36F000EB26F0001B0A52DD0030E00016F
:1011CA00B01500019B6F000E0001B11500019C6F64
:1011DA0000019B5100019C11D8B409D094C0D9FFD9
:1011EA0095C0DAFF2D0EDF6E0001944B952B00019E
:1011FA00B2510001B311D8B486D094C0D9FF95C0BA
:10120A00DAFF300EDF6E0001944B952B0001B20716
:10121A00D8A0B307ECD70001B2510001B311D8B47A
:10122A0013D094C0D9FF95C0DAFF200EDF6E0001FB
:10123A00944B952B0001B207D8A0B3070001B25115
:10124A000001B311D8A4EDD7030E0001B0150001B7
:10125A009B6F000E0001B11500019C6F00019B51AC
:10126A0000019C11D8B44FD094C0D9FF95C0DAFFC1
:10127A002D0EDF6E45D0B7C09BF0B8C09CF00001C0
:10128A00D8909B379C370001D8909B379C37010E2A
:10129A0000019B25F66E060E9C21F76E0900F5CF1C
:1012AA001BF00900F5CF1CF00900F5CF1DF00A006C
:1012BA00F5CF1EF0AAC017F0ABC018F0ACC019F0F9
:1012CA00ADC01AF099EC15F017C024F018C025F03B
:1012DA0019C026F01AC027F00A0E286E000E296ED1
:1012EA00000E2A6E000E2B6E12EC16F02450300FF0
:1012FA000001B96F94C0D9FF95C0DAFFB9C0DFFF0A
:10130A000001944B952B0001B707D8A0B80700013C
:10131A00B729B1E10001B829D8A4ADD796C0F6FF24
:10132A0097C0F7FF0001964B972B0800F5CFB9F04D
:10133A000001B951D8A485EF03F094C0D9FF95C034
:10134A00DAFF000EDF6E12000001846F000184AF25
:10135A000AD10001846D00018451800A120FD8A0BD
:10136A0094D0000E286E030E276E000E206E0A0E11
:10137A001F6E000E1A6E640E196E00018451176EEC
:10138A00186A17BE1806DAEC15F017C01DF018C057
:10139A001EF057EC15F0090E1D24256E000E1E20B6
:1013AA00266EC4EC17F0500E2524F66E060E262083
:1013BA00F76E0900F5CF72F00900F5CF73F00A0055
:1013CA00F5CF74F0000E206E640E1F6E000184517A
:1013DA001D6E1E6A1DBE1E0657EC15F0120E1D2448
:1013EA00256E000E1E20266E000E286E030E276E36
:1013FA00C4EC17F0500E2524F66E060E2620F76E62
:10140A000900F5CF6FF00900F5CF70F00A00F5CFAB
:10141A0071F023EC10F06FC081F070C082F071C0DF
:10142A0083F081C06FF082C070F083C071F0000E4B
:10143A00286E030E276E000E1A6E0A0E196E000130
:10144A008451176E186A17BE1806DAEC15F017C021
:10145A0025F018C026F0C4EC17F0500E2524F66EBD
:10146A00060E2620F76E0900F5CF72F00900F5CFB7
:10147A0073F00A00F5CF74F023EC10F06FC07EF021
:10148A0070C07FF071C080F0120000018451800AA0
:10149A00750FD8A055D0000E206E0A0E1F6E0001DF
:1014AA0084511D6E1E6A1DBE1E0657EC15F0090EEC
:1014BA001D24256E000E1E20266E000E286E030EB9
:1014CA00276EC4EC17F0500E2524F66E060E262061
:1014DA00F76E0900F5CF6FF00900F5CF70F00A003A
:1014EA00F5CF71F0000E286E030E276E000E1A6EED
:1014FA000A0E196E00018451176E186A17BE180673
:10150A00DAEC15F017C025F018C026F0C4EC17F075
:10151A00500E2524F66E060E2620F76E0900F5CF2A
:10152A0072F00900F5CF73F00A00F5CF74F023ECDE
:10153A0010F06FC07EF070C07FF071C080F01200B2
:10154A0000018451030D500EF324F66E060EF420AA
:10155A00F76E0900F5CF7EF00900F5CF7FF00A009B
:10156A00F5CF80F0120000018451800A120FD8A032
:10157A0094D0000E286E030E276E000E206E0A0EFF
:10158A001F6E000E1A6E640E196E00018451176EDA
:10159A00186A17BE1806DAEC15F017C01DF018C045
:1015AA001EF057EC15F0090E1D24256E000E1E20A4
:1015BA00266EC4EC17F0290E2524F66E060E262098
:1015CA00F76E0900F5CF72F00900F5CF73F00A0043
:1015DA00F5CF74F0000E206E640E1F6E0001845168
:1015EA001D6E1E6A1DBE1E0657EC15F0120E1D2436
:1015FA00256E000E1E20266E000E286E030E276E24
:10160A00C4EC17F0290E2524F66E060E2620F76E76
:10161A000900F5CF6FF00900F5CF70F00A00F5CF99
:10162A0071F023EC10F06FC081F070C082F071C0CD
:10163A0083F081C06FF082C070F083C071F0000E39
:10164A00286E030E276E000E1A6E0A0E196E00011E
:10165A008451176E186A17BE1806DAEC15F017C00F
:10166A0025F018C026F0C4EC17F0290E2524F66ED2
:10167A00060E2620F76E0900F5CF72F00900F5CFA5
:10168A0073F00A00F5CF74F023EC10F06FC07EF00F
:10169A0070C07FF071C080F0120000018451800A8E
:1016AA00750FD8A055D0000E206E0A0E1F6E0001CD
:1016BA0084511D6E1E6A1DBE1E0657EC15F0090EDA
:1016CA001D24256E000E1E20266E000E286E030EA7
:1016DA00276EC4EC17F0290E2524F66E060E262076
:1016EA00F76E0900F5CF6FF00900F5CF70F00A0028
:1016FA00F5CF71F0000E286E030E276E000E1A6EDB
:10170A000A0E196E00018451176E186A17BE180660
:10171A00DAEC15F017C025F018C026F0C4EC17F063
:10172A00290E2524F66E060E2620F76E0900F5CF3F
:10173A0072F00900F5CF73F00A00F5CF74F023ECCC
:10174A0010F06FC07EF070C07FF071C080F01200A0
:10175A0000018451030D290EF324F66E060EF420BF
:10176A00F76E0900F5CF7EF00900F5CF7FF00A0089
:10177A00F5CF80F012000001876F6D0E00018765BA
:10178A00A2D0000E286E030E276E000E206E0A0EDF
:10179A001F6E000E1A6E640E196E87C017F0186A53
:1017AA00DAEC15F017C01DF018C01EF057EC15F052
:1017BA00090E1D24256E000E1E20266EC4EC17F09D
:1017CA00500E2524F66E060E2620F76E0900F5CF78
:1017DA0072F00900F5CF73F00A00F5CF74F0000E2D
:1017EA00206E640E1F6E87C01DF01E6A57EC15F03E
:1017FA00120E1D24256E000E1E20266E000E286E67
:10180A00030E276EC4EC17F0500E2524F66E060E52
:10181A002620F76E0900F5CF6FF00900F5CF70F0BA
:10182A000A00F5CF71F023EC10F06FC084F070C09D
:10183A0085F071C086F0000E286E030E276E000E2A
:10184A001A6E0A0E196E87C017F0186ADAEC15F0CC
:10185A0017C025F018C026F0C4EC17F0500E252446
:10186A00F66E060E2620F76E0900F5CF72F0090013
:10187A00F5CF73F00A00F5CF74F084C06FF085C01D
:10188A0070F086C071F023EC10F06FC081F070C068
:10189A0082F071C083F081C06FF082C070F083C0A3
:1018AA0071F0000E0001726F000E0001736F3F0E9F
:1018BA000001746F23EC10F06FC07EF070C07FF0EF
:1018CA0071C080F012000A0E0001876566D0000E12
:1018DA00286E030E276E000E1A6E0A0E196E87C046
:1018EA0017F0186ADAEC15F017C025F018C026F0C0
:1018FA00C4EC17F0500E2524F66E060E2620F76E5D
:10190A000900F5CF72F00900F5CF73F00A00F5CFA0
:10191A0074F0000E206E0A0E1F6E87C01DF01E6A3C
:10192A0057EC15F0090E1D24256E000E1E20266E9A
:10193A00000E286E030E276EC4EC17F0500E2524F5
:10194A00F66E060E2620F76E0900F5CF6FF0090035
:10195A00F5CF70F00A00F5CF71F023EC10F06FC0EC
:10196A0084F070C085F071C086F084C06FF085C0C5
:10197A0070F086C071F0000E0001726F000E000157
:10198A00736F3F0E0001746F23EC10F06FC07EF08E
:10199A0070C07FF071C080F0120000018751030D02
:1019AA00500EF324F66E060EF420F76E0900F5CFFA
:1019BA006FF00900F5CF70F00A00F5CF71F0000E54
:1019CA000001726F000E0001736F3F0E0001746F09
:1019DA0023EC10F06FC07EF070C07FF071C080F011
:1019EA0012002DC031F0326A336A2C34313601E3E9
:1019FA0032803150366E30C031F0326A336A2F3459
:101A0A00313601E332803150356E3650D8B40BD0BE
:101A1A003550365CD8B00ED0365000083524316EB9
:101A2A00180E316407D02EC02BF02FC02CF030C016
:101A3A002DF012003550D8B40BD03650355CD8B0E2
:101A4A000ED0355000083624316E180E316407D096
:101A5A002BC02BF02CC02CF02DC02DF01200060E3E
:101A6A00346E2DBE348E30BE348C2C8EFF0E2B1667
:101A7A00FF0E2C16000E2D162F8EFF0E2E16FF0EA1
:101A8A002F16000E30163550365CD8B01BD0D890C1
:101A9A002E362F363036350636503518D8B40DD096
:101AAA00340634C031F0070E3116D8B406D0EFD759
:101ABA00D8902D322C322B32362A35503618D8B4DB
:101ACA001FD0F6D73650355CD8B01AD0D8902B36FE
:101ADA002C362D36360636503518D8B40DD0340685
:101AEA0034C031F0070E3116D8B406D0EFD7D890EB
:101AFA0030322F322E32352A35503618D8A4F7D73D
:101B0A0034AE0CD0FF0E2B1AFF0E2C1AFF0E2D1A14
:101B1A00010E2B26000E2C22000E2D2234AC0CD0E6
:101B2A00FF0E2E1AFF0E2F1AFF0E301A010E2E2646
:101B3A00000E2F22000E3022000E346E2B502E265D
:101B4A002C502F222D50302230AE0ED0FF0E2E1ADE
:101B5A00FF0E2F1AFF0E301A010E2E26000E2F220C
:101B6A00000E3022010E346E2EC017F02FC018F06E
:101B7A0030C019F036C01AF034C01BF074EC14F0FF
:101B8A0017C02BF018C02CF019C02DF01200C00E8F
:101B9A000001636F7F0E0001646F440E0001656FE0
:101BAA00BAC01FF0BBC020F077EC17F01FC060F07E
:101BBA0020C061F021C062F0D2EC10F060C06FF07A
:101BCA0061C070F062C071F0000E0001726F980E71
:101BDA000001736F400E0001746F23EC10F06FC0A8
:101BEA00ECF070C0EDF071C0EEF0620E0001636FB0
:101BFA00210E0001646F3D0E0001656FBC0E2E6E52
:101C0A00160E2F6EBB0E306EECC02BF0EDC02CF012
:101C1A00EEC02DF0F6EC0CF02BC060F02CC061F099
:101C2A002DC062F0D2EC10F060C085F061C086F081
:101C3A0062C087F078EC11F085C0EFF086C0F0F052
:101C4A00000E2E6E000E2F6E420E306E660E0001D2
:101C5A00726FE60E0001736F3F0E0001746FEFC0E2
:101C6A001FF0F0C020F077EC17F01FC06FF020C013
:101C7A0070F021C071F023EC10F06FC02BF070C02F
:101C8A002CF071C02DF0F6EC0CF02BC085F02CC0B6
:101C9A0086F02DC087F078EC11F085C0F1F086C08F
:101CAA00F2F0BC0E176E000E186E770E196E060E45
:101CBA001A6EACEC17F0BC0E1D6E000E1E6E73ECA5
:101CCA0016F0C00EF1EC16F0DC0E0001946F000E57
:101CDA000001956FF50E0001966F060E0001976FD1
:101CEA00F1C098F0F2C099F07DEC03F0DC0E1D6EA5
:101CFA00000E1E6E73EC16F0DF0E9FEC16F0CC0E83
:101D0A00176E000E186EB80E196E060E1A6EACEC2F
:101D1A0017F0CC0E1D6E000E1E6E73EC16F012003C
:101D2A00C00E0001636F7F0E0001646F440E000154
:101D3A00656FBAC01FF0BBC020F077EC17F01FC068
:101D4A0060F020C061F021C062F0D2EC10F060C0F7
:101D5A006FF061C070F062C071F0000E0001726F26
:101D6A00980E0001736F400E0001746F23EC10F09F
:101D7A006FC0EFF070C0F0F071C0F1F0000E00011A
:101D8A00726F200E0001736F420E0001746FEFC074
:101D9A006FF0F0C070F0F1C071F023EC10F06FC07A
:101DAA002BF070C02CF071C02DF0000E2E6EC80EF4
:101DBA002F6E420E306EF6EC0CF02BC0EFF02CC0FA
:101DCA00F0F02DC0F1F0000E0001636F200E00014B
:101DDA00646F420E0001656F000E0001726F100EF3
:101DEA000001736F410E0001746FEFC06FF0F0C015
:101DFA0070F0F1C071F023EC10F06FC060F070C0A9
:101E0A0061F071C062F0D2EC10F060C02BF061C0DA
:101E1A002CF062C02DF0000E2E6E880E2F6EC10EB1
:101E2A00306EF6EC0CF02BC0ECF02CC0EDF02DC0AF
:101E3A00EEF0BC0E176E000E186E880E196E060EA6
:101E4A001A6EACEC17F0BC0E1D6E000E1E6E73EC13
:101E5A0016F0C00EF1EC16F0DC0E0001946F000EC5
:101E6A000001956FEF0E0001966F060E0001976F45
:101E7A00ECC098F0EDC099F0EEC09AF07DEC03F05A
:101E8A00DC0E1D6E000E1E6E73EC16F0CC0E176E75
:101E9A00000E186ED50E196E060E1A6EACEC17F0FF
:101EAA00CC0E1D6E000E1E6E73EC16F01200C00EE4
:101EBA000001636F7F0E0001646F440E0001656FBD
:101ECA00BAC01FF0BBC020F077EC17F01FC060F05B
:101EDA0020C061F021C062F0D2EC10F060C06FF057
:101EEA0061C070F062C071F0000E0001726F980E4E
:101EFA000001736F400E0001746F23EC10F06FC085
:101F0A00EFF070C0F0F071C0F1F0000E0001726FD6
:101F1A00200E0001736F420E0001746FEFC06FF064
:101F2A00F0C070F0F1C071F023EC10F06FC02BF02C
:101F3A0070C02CF071C02DF0000E2E6E480E2F6E60
:101F4A00420E306EF6EC0CF02BC0EFF02CC0F0F025
:101F5A002DC0F1F0000E0001636F440E0001646FA2
:101F6A00420E0001656F000E0001726F880E0001BB
:101F7A00736F420E0001746FEFC06FF0F0C070F023
:101F8A00F1C071F023EC10F06FC060F070C061F026
:101F9A0071C062F0D2EC10F060C02BF061C02CF07E
:101FAA0062C02DF0000E2E6E400E2F6E400E306E67
:101FBA00F6EC0CF02BC0ECF02CC0EDF02DC0EEF0DE
:101FCA00BC0E176E000E186E990E196E060E1A6E5A
:101FDA00ACEC17F0BC0E1D6E000E1E6E73EC16F004
:101FEA00C00EF1EC16F0DC0E0001946F000E000139
:101FFA00956FEF0E0001966F060E0001976FECC009
:10200A0098F0EDC099F0EEC09AF07DEC03F0DC0E8A
:10201A001D6E000E1E6E73EC16F0CC0E176E000EBF
:10202A00186EC70E196E060E1A6EACEC17F0CC0EAF
:10203A001D6E000E1E6E73EC16F0120071C075F064
:10204A000001766B776B000170350001753701E38B
:10205A007681000175510001786F00017851D8A48A
:10206A000AD0000E00016F6F000E0001706F000EA3
:10207A000001716F120074C075F00001766B776B06
:10208A00000173350001753701E37681000175514E
:10209A0000017D6F00017D51D8A40AD0000E000115
:1020AA006F6F000E0001706F000E0001716F120059
:1020BA0000017D517B0F0001782771C07DF000017E
:1020CA00745100017D1B800E00017D170001708F85
:1020DA000001738FFF0E00017217FF0E00017317C4
:1020EA00000E00017417000E0001796F000E000146
:1020FA007A6F000E00017B6F070E00017C6F0001F2
:10210A006FA10CD0000172510001792700017351AF
:10211A0000017A230001745100017B230001D89049
:10212A00713370336F330001D89072377337743755
:10213A0000017C2FE4D7090E00017C6F00016FA11A
:10214A000CD000017251000179270001735100017E
:10215A007A230001745100017B230001D890713366
:10216A0070336F330001D8907B337A3379330001AF
:10217A007C2FE4D779C017F07AC018F07BC019F029
:10218A0078C01AF07DC01BF074EC14F017C06FF021
:10219A0018C070F019C071F0120062C066F0000138
:1021AA00676B686B000161350001663701E367817F
:1021BA000001665100016D6F00016D51D8A40AD06B
:1021CA00000E0001606F000E0001616F000E000139
:1021DA00626F120065C066F00001676B686B0001F0
:1021EA0064350001663701E3678100016651000129
:1021FA006E6F00016E51D8A40AD0000E0001606F04
:10220A00000E0001616F000E0001626F1200000EE5
:10221A0000016A6F000E00016B6F000E00016C6F07
:10222A0000016E51890F00016D5F62C06EF00001FE
:10223A00655100016E1B800E00016E170001618F4F
:10224A00FF0E00016017FF0E00016117000E00016A
:10225A0062170001648FFF0E00016317FF0E000171
:10226A006417000E00016517180E0001696F00015E
:10227A00D8906A376B376C37000163510001605D93
:10228A000001645100016159000165510001625960
:10229A00D8A00ED0000163510001605F00016451B3
:1022AA000001615B000165510001625B00016A8106
:1022BA000001D8906037613762370001692FD7D79C
:1022CA006AC017F06BC018F06CC019F06DC01AF034
:1022DA006EC01BF074EC14F017C060F018C061F007
:1022EA0019C062F0120087C089F000018A6B8B6BFB
:1022FA00000186350001893701E38A81000189518D
:10230A000001936F00019351D8A40AD0000E000176
:10231A00856F000E866F000E876F000E886F1200A1
:10232A00170E0001896F85C08AF086C08BF087C0BE
:10233A008CF00001892900018D6F05D00001D89029
:10234A008C338B338A3300018D2FF8D700018A51E1
:10235A0000018E6F0001868FFF0E00018517FF0EA8
:10236A0000018617000E0001871700018551000140
:10237A008F6F000186510001906F000187510001A3
:10238A00916F0001926B8E0E0001935F000193AF73
:10239A001AD000019351800A8F0FD8B00AD0000ECC
:1023AA000001856F000E866F000E876F000E886F22
:1023BA0012000001D8909233913390338F33000189
:1023CA00933FF7D71BD0170E0001936512D0000E6A
:1023DA000001856F000E866F000E876F000E886FF2
:1023EA0012000001D8908F37903791379237000149
:1023FA009307000193510001D8A4F3D700018E512D
:10240A000001D8B409D00001921F911F901F8F6D4F
:10241A00000E9023912392238FC085F090C086F0FE
:10242A0091C087F092C088F0120019C01DF01E6A90
:10243A001F6A18341D3601E31E801D50256E255073
:10244A00D8A409D0000E176E000E186E000E196E71
:10245A00000E1A6E12001CC01DF01E6A1F6A1B3481
:10246A001D3601E31E801D50246E2450D8A409D0C5
:10247A00000E176E000E186E000E196E000E1A6E00
:10248A001200188EFF0E1716FF0E1816000E1916D8
:10249A001B8EFF0E1A16FF0E1B16000E1C16000EC0
:1024AA00206E000E216E000E226E000E236E7F0E2D
:1024BA00255E2450980F255E180E246ED89020367B
:1024CA002136223623361A50175C1B5018581C50D6
:1024DA001958D8A007D01A50175E1B50185A1C500A
:1024EA00195A2080D890173618361936242EE6D76E
:1024FA0025AE16D02550800A970FD8B009D0000E05
:10250A00176E000E186E000E196E000E1A6E12006B
:10251A00D8902332223221322032253EF9D715D0E3
:10252A00170E25640FD0000E176E000E186E000EDF
:10253A00196E000E1A6E1200D890203621362236F5
:10254A00233625062550D8A4F7D720C017F021C076
:10255A0018F022C019F023C01AF01200C00E0001B0
:10256A00636F7F0E0001646F440E0001656FBAC08D
:10257A001FF0BBC020F077EC17F01FC060F020C03E
:10258A0061F021C062F0D2EC10F060C06FF061C05F
:10259A0070F062C071F0000E0001726F980E0001B7
:1025AA00736F400E0001746F23EC10F06FC0ECF0F3
:1025BA0070C0EDF071C0EEF0620E0001636F210E83
:1025CA000001646F3D0E0001656FBC0E2E6E160E83
:1025DA002F6EBB0E306EECC02BF0EDC02CF0EEC0AF
:1025EA002DF0F6EC0CF02BC060F02CC061F02DC081
:1025FA0062F0D2EC10F060C085F061C086F062C073
:10260A0087F078EC11F085C0EFF086C0F0F0BC0ED0
:10261A00176E000E186E770E196E060E1A6EACEC57
:10262A0017F0BC0E1D6E000E1E6E73EC16F0C00E77
:10263A00F1EC16F0DC0E0001946F000E0001956FAC
:10264A00F50E0001966F060E0001976FEFC098F025
:10265A00F0C099F07DEC03F0DC0E1D6E000E1E6ECC
:10266A0073EC16F0DF0E9FEC16F0CC0E176E000E10
:10267A00186EA90E196E060E1A6EACEC17F0CC0E77
:10268A001D6E000E1E6E73EC16F0120092680F0E8D
:10269A000F01386F070E936E000E0F01396F180E77
:1026AA00946E000E0F013A6FC280F30EC116FC0E33
:1026BA00C116C08EC050C70B1009C06EC090C09220
:1026CA00C094F28EF288F292F18C9D869E96F28CDC
:1026DA00360EC66E800EC86E948694880F013A979D
:1026EA000F013A99010EC56E800EC76E13EC15F0F4
:1026FA00610E9FEC16F0E30E1D6E060E1E6E73EC55
:10270A0016F0000E186E000E176E5BEC17F017C06D
:10271A003DF018C03EF0000E186E010E176E5BEC0D
:10272A0017F017C03BF018C03CF0000E186E020EEE
:10273A00176E5BEC17F017C039F018C03AF0060EA6
:10274A0041184210D8A40AD0020EF1EC16F03DC08E
:10275A00BAF03EC0BBF0B3EC12F0D3D7070E411863
:10276A004210D8A40AD0020EF1EC16F03DC0BAF01D
:10277A003EC0BBF0CCEC0DF0C4D7080E4118421095
:10278A00D8A40AD0020EF1EC16F03BC0BAF03CC055
:10279A00BBF05CEC0FF0B5D7090E41184210D8A473
:1027AA00B0D7020EF1EC16F039C0BAF03AC0BBF05D
:1027BA0095EC0EF0A6D719341A34226E2250D8A4FA
:1027CA0009D0000E176E000E186E000E196E000E5C
:1027DA001A6E12001C341D34216E2150D8A409D05F
:1027EA00000E176E000E186E000E196E000E1A6E8D
:1027FA001200198EFF0E1716FF0E1816FF0E191665
:10280A00000E1A161C8EFF0E1A16FF0E1B16FF0E4E
:10281A001C16000E1D16000E1D6E000E1E6E000EFA
:10282A001F6E000E206E7F0E225E2150A00F225EC8
:10283A00200E216ED8901D361E361F3620361A50AD
:10284A00175C1B5018581C5019581D501A58D8A0FC
:10285A0009D01A50175E1B50185A1C50195A1D508D
:10286A001A5A1D80D8901736183619361A36212E5C
:10287A00E1D722AE16D02250800A9F0FD8B009D0D5
:10288A00000E176E000E186E000E196E000E1A6EEC
:10289A001200D89020321F321E321D32223EF9D742
:1028AA0015D01F0E22640FD0000E176E000E186E80
:1028BA00000E196E000E1A6E1200D8901D361E36C2
:1028CA001F36203622062250D8A4F7D71DC017F08B
:1028DA001EC018F01FC019F020C01AF012001A50BA
:1028EA00D8B405D0175018101910D8A40CD0000E5F
:1028FA00176E000E186E000E196E12001A2AD89062
:10290A00193218321732000E17141C6E000E1814E2
:10291A001D6EFE0E19141E6E1C501D101E10D8B40A
:10292A000CD0ECD71A2A010E1726000E1822000E18
:10293A001922D890193218321732000E17141C6E49
:10294A00000E18141D6EFF0E19141E6E1C501D1059
:10295A001E10D8B406D0E6D71A06D89017361836FD
:10296A00193618BE03D0020E1A60F6D71AA0189E9E
:10297A00D8901A321A5019121B50D8A4198E17C09F
:10298A0017F018C018F019C019F0120019AE16D0B5
:10299A0017C01DF018C01EF019C01FF01D1E1E1E04
:1029AA001F1E1D2A000E1E221F22000E1D24176E36
:1029BA00000E1E20186E800E1F20196E1CAE16D037
:1029CA001AC01DF01BC01EF01CC01FF01D1E1E1ECB
:1029DA001F1E1D2A000E1E221F22000E1D241A6E03
:1029EA00000E1E201B6E800E1F201C6E000E171A72
:1029FA00000E181A800E191A000E1A1A000E1B1A47
:102A0A00800E1C1A1A50175C1B5018581C50195863
:102A1A00D8B002D0D8901200D8801200050E1D6ED0
:102A2A00DE0EE82EFED71D2EFCD7050E1D6EDE0E1D
:102A3A00E82EFED71D2EFCD7300EF1EC16F0380E1C
:102A4A00F1EC16F0050E1D6EDE0EE82EFED71D2ED9
:102A5A00FCD7080EF1EC16F0050E1D6EDE0EE82E00
:102A6A00FED71D2EFCD7010EF1EC16F0050E1D6ED9
:102A7A00DE0EE82EFED71D2EFCD7060EF1EC16F060
:102A8A00050E1D6EDE0EE82EFED71D2EFCD70F0E8C
:102A9A00F1EC16F0050E1D6EDE0EE82EFED71D2E89
:102AAA00FCD71200000E226E20AE06D01F6C201E2C
:102ABA00D8B0202A010E226E1EAE06D01D6C1E1E34
:102ACA00D8B01E2A010E221A000E246E000E236EA2
:102ADA001F502010D8B41CD0010E216E04D0D890FB
:102AEA001F362036212A20AEFAD7D890233624362C
:102AFA001F501D5C20501E58D8A005D01F501D5EC7
:102B0A0020501E5A2380D89020321F32212EEDD712
:102B1A002250D8B404D0236C241ED8B0242A23C04F
:102B2A001DF024C01EF01200000E1F6E000E206E53
:102B3A00000E216E000E226E1B501C101D101E105E
:102B4A00D8B42AD0010E236E06D0D8901B361C3674
:102B5A001D361E36232A1EAEF8D7D8901F362036C9
:102B6A00213622361B50175C1C5018581D50195814
:102B7A001E501A58D8A009D01B50175E1C50185A5C
:102B8A001D50195A1E501A5A1F80D8901E321D32D3
:102B9A001C321B32232EE1D71FC017F020C018F0B9
:102BAA0021C019F022C01AF01200000E1C6E18AED5
:102BBA0006D0176C181ED8B0182A010E1C6E1AAE51
:102BCA0004D0196C1A1ED8B01A2A19501A10D8B47F
:102BDA0018D0010E1B6E04D0D89019361A361B2A4B
:102BEA001AAEFAD71950175C1A501858D8A004D040
:102BFA001950175E1A50185AD8901A3219321B2EC9
:102C0A00F1D71C50D8B404D0176C181ED8B0182AA3
:102C1A0017C017F018C018F01200285029102A10EF
:102C2A002B10D8B424D0010E2C6E06D0D89028369A
:102C3A0029362A362B362C2A2BAEF8D72850245C74
:102C4A00295025582A5026582B502758D8A008D042
:102C5A002850245E2950255A2A50265A2B50275A82
:102C6A00D8902B322A32293228322C2EE7D724C088
:102C7A0024F025C025F026C026F027C027F0120030
:102C8A008E0E276E06D0D8902232213220321F3281
:102C9A00272A000E1F14236E000E2014246E000E25
:102CAA002114256EFF0E2214266E2350241025109F
:102CBA002610D8A4E8D71FC017F020C018F021C0EA
:102CCA0019F027C01AF0000E1B6E74EC14F017C02E
:102CDA001FF018C020F019C021F01200000E226E59
:102CEA00000E216E1AD021501D241F6E22501E2064
:102CFA00206E1FC0F6FF20C0F7FFF86A050EF764C2
:102D0A0003D00800F55005D0F6CFE9FFF7CFEAFF68
:102D1A00EF509FEC16F0214A222A1DC017F01EC060
:102D2A0018F0C8EC16F01750215C18502258D8B089
:102D3A001200D9D71A6E8A868A98000E1C6E070E60
:102D4A001B6E1CBE1DD01BC018F01AC019F0182A21
:102D5A0002D0D8901932182EFCD7010E1916193A3A
:102D6A0019468B501918DF0B19188B6E8B9C8B8C9C
:102D7A00530EE82EFED700F01B06D8A01C06E1D79A
:102D8A00E9EC17F0120017C01BF018C01CF002D0B3
:102D9A001B4A1C2A1BC0F6FF1CC0F7FFF86A050E67
:102DAA00F76403D00800F55005D0F6CFE9FFF7CF56
:102DBA00EAFFEF500009D8A4EBD717C019F018C0E2
:102DCA001AF0191E1A1E194A1A2A1B501924176EAC
:102DDA001C501A20186E12001A6E8A968A9800F0F1
:102DEA00000E1C6E070E1B6E1CBE19D01BC018F0FD
:102DFA001AC019F0182A02D0D8901932182EFCD706
:102E0A00010E1916193A19468B501918DF0B1918A1
:102E1A008B6E8B9C8B8C1B06D8A01C06E5D7E9EC25
:102E2A0017F000F012000001635100016411000163
:102E3A006511D8B409D0000E0001631B000E000111
:102E4A00641B800E0001651B60C02BF061C02CF072
:102E5A0062C02DF063C02EF064C02FF065C030F060
:102E6A00F6EC0CF02BC060F02CC061F02DC062F0C3
:102E7A00120037503810D8A40BD003C001F004C098
:102E8A0002F018EC18F0000E386E010E376E1200C0
:102E9A0037043810D8A412000450016E026A18ECE4
:102EAA0018F0000E386E000E376E120017C019F0B7
:102EBA0019461946C2501918830B1918C26E00D048
:102ECA00C282C2B2FED7C4501A6E196AC3501924FC
:102EDA001B6E000E1A201C6E00D01BC017F01CC0FF
:102EEA0018F01200000E226E20AE06D01F6C201EB3
:102EFA00D8B0202A010E226E1FC017F020C018F089
:102F0A00196A8E0E1A6E22C01BF074EC14F017C0E8
:102F1A001FF018C020F019C021F01200460EF66EFC
:102F2A00300EF76E000EF86E0900F5CF45F0090075
:102F3A00F5CF46F000EE37F00E0EEE6AE806FDE138
:102F4A0047904792000EF86E00014BEF13F017C03E
:102F5A001BF018C01CF004D01B4A1C2A194A1A2A52
:102F6A0019C0F6FF1AC0F7FF1BC0D9FF1CC0DAFF51
:102F7A000800F5CFDFFFDF50D8B41200EDD7255097
:102F8A002702F3CF29F0F4CF2AF025502802F35074
:102F9A002A2626502702F3502A2629C025F02AC0BD
:102FAA0026F01200175018101910D8B406D0000EC7
:102FBA00171A000E181A800E191A17C017F018C01F
:102FCA0018F019C019F012008A8A040E176E3E0E04
:102FDA00E82EFED7172EFCD78A9A040E176E3E0EDD
:102FEA00E82EFED7172EFCD71200196E000E186EA7
:102FFA003A0E196005D02F0E196402D0010E186E10
:10300A0018C017F017301200C9CF3FF0406AC688BF
:10301A00C7A0FED7C9CF03F0046AC68803C001F06F
:10302A0004C002F01200C698C9CF3FF0406A9E96CB
:0E303A0001C0C9FFC688C7A01200FDD7010360
:020000040020DA
:08000000FFFFFFFFFFFFFFFF00
:020000040030CA
:0E000000FF28193CFFBF85FF0FC00FE00F4027
:00000001FF
